:100000000C9430000C9478110C944D000C944D001D
:100010000C94590F0C942C0F0C94FF0E0C94D20ED0
:100020000C94A50E0C94780E0C944B0E0C941E0E92
:100030000C944D000C941B0B0C94480B0C94750BFA
:100040000C94D4160C944D000C944D000C944D005F
:100050000C944D006364696E6F70737578585B0023
:1000600011241FBECFE5D8E0DEBFCDBF15E0A0E66E
:10007000B0E0E4EEFBE502C005900D92AA3BB107AB
:10008000D9F715E0AAEBB5E001C01D92AB3EB10770
:10009000E1F70E94151F0C94F02D0C940000EF92D4
:1000A000FF920F931F937B018C0120E030E040E032
:1000B0005FE40E94FB0388238CF0C801B70120E0B5
:1000C00030E040E05FE40E94C7010E945B049B01B6
:1000D000AC01205030404040504806C0C801B70134
:1000E0000E945B049B01AC01B901CA011F910F91F1
:1000F000FF90EF900895A0E0B0E0E1E8F0E00C940C
:100100009C26DC012B01FA019C91923008F439C144
:10011000EB018881823008F433C1943069F4843073
:1001200009F02FC111969C9111978981981709F4B4
:1001300028C1AAE8B4E025C1843009F421C1823085
:10014000A9F4923009F01DC19A01AD0188E0EA01DD
:100150000990AE01E90109929E018150C1F7E201C7
:10016000898111969C918923818308C1923009F479
:1001700007C112962D903C901397EB018A819B81C9
:100180001496AD90BD90CD90DC901797EC80FD80DB
:100190000E811F819101281B390BB90137FF04C063
:1001A00066277727621B730B603271050CF061C004
:1001B000121613066CF537014801062E04C09694FA
:1001C0008794779467940A94D2F721E030E040E076
:1001D00050E004C0220F331F441F551F6A95D2F709
:1001E00021503040404050402E213F214023512398
:1001F000211531054105510521F021E030E040E0B5
:1002000050E079018A01E628F728082919293CC01D
:10021000232BD1F1260E371E35014601062E04C0D0
:1002200096948794779467940A94D2F721E030E00B
:1002300040E050E004C0220F331F441F551F6A9551
:10024000D2F721503040404050402A213B214C21E0
:100250005D21211531054105510521F021E030E0F6
:1002600040E050E059016A01A628B728C828D928DB
:100270000BC0821593052CF01C01AA24BB24650138
:1002800003C0EE24FF24870111969C91D2011196A0
:100290008C91981709F445C0992339F0A80197016A
:1002A0002A193B094C095D0906C0A60195012E19C2
:1002B0003F09400B510B57FD08C011823382228247
:1002C00024833583468357831DC081E08183338235
:1002D000228288279927DC01821B930BA40BB50B84
:1002E00084839583A683B7830DC0220F331F441FD9
:1002F000551F2483358346835783828193810197D9
:10030000938382832481358146815781DA01C90133
:100310000197A109B1098F5F9F4FAF4FBF4328F3EA
:100320000BC0918333822282EA0CFB1C0C1D1D1D25
:10033000E482F5820683178383E0808324813581FC
:100340004681578157FF1AC0C901AA2797FDA0957A
:10035000BA2F81709070A070B07056954795379500
:100360002795822B932BA42BB52B84839583A6836F
:10037000B78382819381019693838283DF0101C0D9
:10038000D201CD01CDB7DEB7E2E10C94B826A0E2F0
:10039000B0E0EDECF1E00C94A82669837A838B83BE
:1003A0009C832D833E834F835887E9E0EE2EF12C0A
:1003B000EC0EFD1ECE010196B7010E944C068E0187
:1003C0000F5E1F4FCE010596B8010E944C068A8928
:1003D00091E089278A8BC701B801AE01475E5F4F64
:1003E0000E947B000E947705A096E6E00C94C4264C
:1003F000A0E2B0E0EEEFF1E00C94A82669837A83E6
:100400008B839C832D833E834F835887F9E0EF2EA7
:10041000F12CEC0EFD1ECE010196B7010E944C0698
:100420008E010F5E1F4FCE010596B8010E944C064B
:10043000C701B801AE01475E5F4F0E947B000E947A
:100440007705A096E6E00C94C426A0E2B0E0EBE2CB
:10045000F2E00C949C2669837A838B839C832D83A2
:100460003E834F835887CE010196BE01675F7F4F61
:100470000E944C06CE010596BE016F5E7F4F0E9422
:100480004C069985923088F089898230C8F0943082
:1004900019F4823051F404C0843029F4923081F48C
:1004A0008AE894E0C6C0923049F420E09A858A89AF
:1004B000981321E02A87CE010996BBC0823049F407
:1004C00020E09A858A89981321E02A8BCE014196F3
:1004D000B0C02D843E844F8458886D887E888F8874
:1004E000988CEE24FF248701AA24BB24650140E0F8
:1004F00050E060E070E0E0E0F0E0C10181709070F9
:10050000892BE9F0E60CF71C081D191D9A01AB01B7
:100510002A0D3B1D4C1D5D1D80E090E0A0E0B0E089
:10052000E614F7040805190520F481E090E0A0E046
:10053000B0E0BA01A901480F591F6A1F7B1FAA0C1E
:10054000BB1CCC1CDD1C97FE08C081E090E0A0E045
:10055000B0E0A82AB92ACA2ADB2A3196E032F1058E
:1005600049F0660C771C881C991C56944794379464
:100570002794C3CFFA85EA892B893C898B859C8592
:10058000280F391F2E5F3F4F17C0CA01817090702E
:10059000892B61F016950795F794E79480E090E039
:1005A000A0E0B0E8E82AF92A0A2B1B2B769567957C
:1005B000579547952F5F3F4F77FDE7CF0CC0440F0E
:1005C000551F661F771F17FD4160EE0CFF1C001FB3
:1005D000111F21503040403090E0590790E06907EA
:1005E00090E4790760F32B8F3C8FDB01CA018F7792
:1005F0009070A070B07080349105A105B10561F4D0
:1006000047FD0AC0E114F1040105110529F0405C21
:100610005F4F6F4F7F4F40781A8EFE1711F081E0C9
:100620008A8F4D8F5E8F6F8F78A383E0898FCE0185
:1006300049960E947705A096E2E10C94B826A8E1BD
:10064000B0E0E5E2F3E00C94A42669837A838B831F
:100650009C832D833E834F835887B9E0EB2EF12C8A
:10066000EC0EFD1ECE010196B7010E944C068E01D4
:100670000F5E1F4FCE010596B8010E944C062985DA
:10068000223008F47EC03989323010F4B8017CC0C1
:100690008A859A8989278A87243011F0223031F49B
:1006A000231709F06EC06AE874E06EC0343039F484
:1006B0001D861E861F86188A1C861B8604C0323043
:1006C00021F484E08987B7015FC02B853C858B8945
:1006D0009C89281B390B3C872B87ED84FE840F8572
:1006E0001889AD88BE88CF88D88CEA14FB040C0525
:1006F0001D0540F4EE0CFF1C001F111F215030405F
:100700003C872B8720E030E040E050E080E090E044
:10071000A0E0B0E460E070E0EA14FB040C051D0505
:1007200040F0282B392B4A2B5B2BEA18FB080C09CD
:100730001D09B695A79597958795EE0CFF1C001F90
:10074000111F6F5F7F4F6F31710531F7DA01C901FA
:100750008F779070A070B07080349105A105B105BD
:1007600061F427FD0AC0E114F1040105110529F027
:10077000205C3F4F4F4F5F4F20782D873E874F873C
:10078000588BBE01675F7F4FCB010E94770568964B
:10079000EAE00C94C026A8E1B0E0E1EDF3E00C94AF
:1007A000A82669837A838B839C832D833E834F8322
:1007B000588789E0E82EF12CEC0EFD1ECE01019643
:1007C000B7010E944C068E010F5E1F4FCE010596A9
:1007D000B8010E944C068985823040F089898230B8
:1007E00028F0C701B8010E94C40601C08FEF6896C7
:1007F000E6E00C94C426A8E1B0E0E1E0F4E00C945B
:10080000A82669837A838B839C832D833E834F83C1
:10081000588789E0E82EF12CEC0EFD1ECE010196E2
:10082000B7010E944C068E010F5E1F4FCE01059648
:10083000B8010E944C068985823040F08989823057
:1008400028F0C701B8010E94C40601C08FEF689666
:10085000E6E00C94C426A8E1B0E0E1E3F4E00C94F7
:10086000A82669837A838B839C832D833E834F8361
:10087000588789E0E82EF12CEC0EFD1ECE01019682
:10088000B7010E944C068E010F5E1F4FCE010596E8
:10089000B8010E944C068985823040F089898230F7
:1008A00028F0C701B8010E94C40601C081E0689623
:1008B000E6E00C94C426ACE0B0E0E1E6F4E00C9491
:1008C000AC2669837A838B839C83CE010196BE011B
:1008D0006B5F7F4F0E944C068D81823061F18230C8
:1008E00050F1843021F48E81882351F12EC02F8164
:1008F000388537FD20C06E812F3131051CF066230D
:10090000F9F023C08EE190E0821B930B29853A8594
:100910004B855C8504C056954795379527958A95F4
:10092000D2F76623B1F050954095309521953F4F11
:100930004F4F5F4F0EC020E030E040E050E009C074
:100940002FEF3FEF4FEF5FE704C020E030E040E0E3
:1009500050E8B901CA012C96E2E00C94C826A8E040
:10096000B0E0E5EBF4E00C94A4267B018C0161156A
:1009700071058105910519F482E0898360C083E0E7
:1009800089838EE1C82ED12CDC82CB82ED82FE825F
:100990000F831887C801B7010E942805FC01319711
:1009A000F7FF3BC0222733272E1B3F0B570168015F
:1009B000022E04C0D694C794B794A7940A94D2F791
:1009C00040E050E060E070E081E090E0A0E0B0E066
:1009D00004C0880F991FAA1FBB1F2A95D2F7019741
:1009E000A109B1098E219F21A023B1230097A10560
:1009F000B10521F041E050E060E070E04A295B2958
:100A00006C297D294D835E836F8378878EE190E02A
:100A10008E1B9F0B9C838B8312C0309781F00E2E10
:100A200004C0EE0CFF1C001F111F0A94D2F7ED82C8
:100A3000FE820F831887CE1ADF0ADC82CB821A82ED
:100A4000CE0101960E9477052896EAE00C94C02614
:100A5000EF92FF920F931F937B018C0180E0E816C9
:100A600080E0F80681E0080780E0180788F48FEF3F
:100A7000E816F1040105110531F028F088E090E056
:100A8000A0E0B0E017C080E090E0A0E0B0E012C0CD
:100A900080E0E81680E0F80680E0080781E01807AB
:100AA00028F088E190E0A0E0B0E004C080E190E0B0
:100AB000A0E0B0E020E230E040E050E0281B390B3D
:100AC0004A0B5B0B04C016950795F794E7948A953B
:100AD000D2F7F701EE56FB4F8081281B31094109FF
:100AE0005109C9011F910F91FF90EF900895DF9276
:100AF000EF92FF920F931F93FC01E480F580068133
:100B00001781D1808081823048F480E090E0A0E1BC
:100B1000B0E0E82AF92A0A2B1B2BA5C0843009F47F
:100B20009FC0823021F4EE24FF24870105C0E11428
:100B3000F1040105110519F4E0E0F0E096C06281CE
:100B400073819FEF623879070CF05BC022E83FEFBA
:100B5000261B370B2A3131052CF020E030E040E035
:100B600050E02AC0B801A701022E04C0769567950F
:100B7000579547950A94D2F781E090E0A0E0B0E065
:100B800004C0880F991FAA1FBB1F2A95D2F701978F
:100B9000A109B1098E219F21A023B1230097A105AE
:100BA000B10521F081E090E0A0E0B0E09A01AB0156
:100BB000282B392B4A2B5B2BDA01C9018F779070D8
:100BC000A070B07080349105A105B10539F427FFFC
:100BD00009C0205C3F4F4F4F5F4F04C0215C3F4F27
:100BE0004F4F5F4FE0E0F0E02030A0E03A07A0E098
:100BF0004A07A0E45A0710F0E1E0F0E079018A0129
:100C000027C06038710564F5FB01E158FF4FD8013A
:100C1000C7018F779070A070B07080349105A105E6
:100C2000B10539F4E7FE0DC080E490E0A0E0B0E04B
:100C300004C08FE390E0A0E0B0E0E80EF91E0A1FC8
:100C40001B1F17FF05C016950795F794E79431967B
:100C500087E016950795F794E7948A95D1F705C034
:100C6000EE24FF248701EFEFF0E06E2F67956627F3
:100C70006795902F9F77D794DD24D7948E2F8695F4
:100C8000492F462B582F5D29B701CA011F910F919B
:100C9000FF90EF90DF900895FC01DB0140815181CE
:100CA0002281622F6F7770E0221F2227221F9381FB
:100CB000892F880F822B282F30E0991F9927991FA1
:100CC00011969C93119721153105A9F541155105F0
:100CD0006105710511F482E037C082E89FEF139639
:100CE0009C938E9312979A01AB0167E0220F331FFA
:100CF000441F551F6A95D1F783E08C930DC0220FD6
:100D0000331F441F551F12968D919C911397019785
:100D100013969C938E931297203080E0380780E0E2
:100D2000480780E4580758F314962D933D934D934C
:100D30005C93179708952F3F310579F441155105BC
:100D40006105710519F484E08C93089564FF03C074
:100D500081E08C9312C01C9210C02F573040139624
:100D60003C932E93129783E08C9387E0440F551F9A
:100D7000661F771F8A95D1F7706414964D935D9323
:100D80006D937C93179708951F93DC01FB019C9151
:100D9000923008F447C08081823008F443C0943018
:100DA00051F411961C91843099F58181682F70E07F
:100DB000611B71093FC0843021F0923031F48230E0
:100DC000B9F18181882389F12DC011961C91119769
:100DD0008230F1F081811817D9F412962D913C914F
:100DE0001397828193818217930794F0281739070C
:100DF000BCF014968D919D910D90BC91A02D2481F5
:100E0000358146815781281739074A075B0718F44F
:100E1000112341F00AC082179307A407B50740F4D5
:100E2000112319F061E070E005C06FEF7FEF02C0A1
:100E300060E070E0CB011F910895DF93CF930F9294
:100E4000CDB7DEB71982ABE2B0E0EBE2F0E0808133
:100E50008D7F8C93ABE2B0E0EBE2F0E080818E7F9F
:100E60008C93AAE2B0E0EAE2F0E080818F778C9385
:100E7000AAE2B0E0EAE2F0E080818F7B8C93AAE204
:100E8000B0E0EAE2F0E080818F7D8C93A0E4B0E0F6
:100E9000E0E4F0E080818F7C8C93A0E4B0E0E0E4BB
:100EA000F0E0808180688C93A0E4B0E0E0E4F0E0C2
:100EB0008081897F8C93A0E4B0E0E0E4F0E0808161
:100EC00086688C9389818F7B8983A0E4B0E0E0E41D
:100ED000F0E090818981892B8C938981877F898338
:100EE000A0E4B0E0E0E4F0E090818981892B8C936C
:100EF00089818E7F8983A0E4B0E0E0E4F0E0908116
:100F00008981892B8C93E9E2F0E083E38083E0E43C
:100F1000F0E01082AAE2B0E0EAE2F0E080818861CD
:100F20008C930F90CF91DF910895DF93CF930F9221
:100F3000CDB7DEB71982EBE2F0E0808182958F7049
:100F4000882F90E081709070882311F081E0898370
:100F500089810F90CF91DF9108950F931F93DF93B5
:100F6000CF9300D00F92CDB7DEB79B838A831982CF
:100F70008981282F30E08A819B818C01020F131F09
:100F80000E947408F80180830FC089818F5F898374
:100F90008981282F30E08A819B818C01020F131FE9
:100FA0000E947408F80180838981282F30E08A81AB
:100FB0009B81FC01E20FF31F8081833231F789812D
:100FC000282F30E08A819B81FC01E20FF31F108201
:100FD0000F900F900F90CF91DF911F910F91089577
:100FE000DF93CF930F92CDB7DEB71982EBE2F0E03B
:100FF0008081869586958695882F90E08170907087
:10100000882311F081E0898389810F90CF91DF914E
:101010000895DF93CF930F92CDB7DEB71982EBE23D
:10102000F0E0808186958695882F90E081709070A1
:10103000882311F081E0898389810F90CF91DF911E
:101040000895DF93CF9300D000D0CDB7DEB78B8368
:101050006C838C81482F50E08B81882F90E09C011D
:1010600022953295307F3227207F3227CA01B9017D
:101070000E948926CB0101979A838983A0E4B0E07E
:10108000E0E4F0E080818F778C93E9E2F0E0898101
:101090008083E0E4F0E089819A81892F99278F7716
:1010A00080830F900F900F900F90CF91DF91089554
:1010B000DF93CF9300D0CDB7DEB79A838983ECE27C
:1010C000F0E089818083EBE2F0E080818295869573
:1010D0008770882F90E0817090700097A1F30F9037
:1010E0000F90CF91DF910895DF93CF93CDB7DEB707
:1010F000EBE2F0E080818823DCF7ECE2F0E0808135
:10110000CF91DF910895DF93CF9300D000D000D02E
:10111000CDB7DEB76B837C838D839E836B817C81AF
:101120008D819E810E944F00DC01CB01CC01A0E0AB
:10113000B0E0BC01CD010E94AF049B01AC016B810A
:101140007C818D819E810E94C701DC01CB01BC01A5
:10115000CD0120E030E543EC57E40E942502DC019C
:10116000CB01BC01CD010E944F00DC01CB019A8371
:1011700089836B817C818D819E810E944F00DC017F
:10118000CB010E94D4088EE290E00E945808898129
:101190009A810E94D40826960FB6F894DEBF0FBE3F
:1011A000CDBFCF91DF910895DF93CF93CDB7DEB759
:1011B00068970FB6F894DEBF0FBECDBF988F8F8BA8
:1011C0008F89988D9E838D831C820DC08C818F5F4B
:1011D0008C838D819E812AE030E0B9010E947526C2
:1011E000CB019E838D838D819E81009779F78F89B6
:1011F000988D9E838D831B821EC08B81E82FF0E02B
:101200008D819E812AE030E0B9010E947526282F49
:10121000205DCE010796E80FF91F20838D819E8106
:101220002AE030E0B9010E947526CB019E838D83B0
:101230008B818F5F8B839B818C819817F0F28C81DF
:10124000882F90E001979A83898311C029813A8180
:10125000CE010796FC01E20FF31F8081882F90E0FA
:101260000E94580889819A8101979A83898389818C
:101270009A8199235CF768960FB6F894DEBF0FBE8B
:10128000CDBFCF91DF9108950F931F93DF93CF933D
:1012900000D000D00F92CDB7DEB79D838C831B8228
:1012A0001A82198212C029813A818C819D81FC01A8
:1012B000E20FF31F8081853219F48B818F5F8B835E
:1012C00089819A8101969A83898309811A818C8107
:1012D0009D810E94DF270817190728F38B810F9043
:1012E0000F900F900F900F90CF91DF911F910F9162
:1012F00008950F931F93DF93CF93CDB7DEB7669713
:101300000FB6F894DEBF0FBECDBF8D8D9E8D0E94AF
:101310004409888BCE014F969A8B898B4EC1ED8DF7
:10132000FE8D8081853299F58D8D9E8DFC013196E3
:101330008081843661F529893A89C90102969A8BA0
:10134000898BF901808191819F878E878E859F850A
:10135000992324F48DE290E00E9458088E859F85A1
:101360009E8B8D8B8D899E8999233CF48D899E89D6
:10137000909581959F4F9E8B8D8B8D899E890E9424
:10138000D4088D8D9E8D01969E8F8D8F08C1ED8D19
:10139000FE8D8081853209F060C08D8D9E8DFC01AF
:1013A00031968081863609F058C029893A89C90169
:1013B00004969A8B898BF90180819181A281B381F6
:1013C0008A879B87AC87BD876A857B858C859D8551
:1013D0000E945B04DC01CB01998788878885998509
:1013E0000097D1F06A857B858C859D8520E030E073
:1013F00040E050E00E942B04882324F48DE290E02A
:101400000E9458088A859B85AC85BD85BF77BC0145
:10141000CD010E9483081BC088859985992324F4F7
:101420008DE290E00E945808888599859C8B8B8B73
:101430008B899C8999233CF48B899C899095819513
:101440009F4F9C8B8B8B8B899C890E94D4088D8DA0
:101450009E8D01969E8F8D8FA2C0ED8DFE8D808119
:101460008532E1F48D8D9E8DFC013196808183362D
:10147000A9F429893A89C90102969A8B898BF901C5
:10148000808191819F838E838E819F810E945808E5
:101490008D8D9E8D01969E8F8D8F81C0ED8DFE8DE1
:1014A00080818532A1F58D8D9E8DFC0131968081E4
:1014B000833769F529893A89C90102969A8B898B04
:1014C000F901808191819D838C831B8210C08B8167
:1014D000282F30E08C819D81FC01E20FF31F808179
:1014E000882F90E00E9458088B818F5F8B838B81BF
:1014F000082F10E08C819D810E94DF2708171907B3
:1015000030F38D8D9E8D01969E8F8D8F48C0ED8D11
:10151000FE8D80818C3519F58D8D9E8DFC01319667
:1015200080818E36E1F41A8207C080E290E00E944A
:1015300058088A818F5F8A838A81482F50E02091E2
:10154000C0053091C10586E490E0821B930B4817DB
:10155000590758F31092C1051092C00520C0ED8DB7
:10156000FE8D80818C35A1F48D8D9E8DFC01319690
:101570008081843769F4198207C080E290E00E947C
:10158000580889818F5F898389818730B0F307C0CC
:10159000ED8DFE8D8081882F90E00E9458088D8D02
:1015A0009E8D01969E8F8D8F8091C0059091C10573
:1015B00001969093C1058093C005ED8DFE8D8081CD
:1015C000882309F0ACCE66960FB6F894DEBF0FBE46
:1015D000CDBFCF91DF911F910F910895DF93CF93EE
:1015E00000D000D0CDB7DEB79B838A836C8319828D
:1015F0008C81882F90E0880F991FFC01E654FA4FE8
:1016000080819181009769F08C81882F90E0880F0C
:10161000991FFC01E654FA4F8A819B819183808354
:1016200002C082E0898389810F900F900F900F9004
:10163000CF91DF9108951F920F920FB60F92112450
:101640002F933F934F935F936F937F938F939F93CA
:10165000AF93BF93EF93FF93DF93CF93CDB7DEB7F5
:10166000E091BA05F091BB050995CF91DF91FF910B
:10167000EF91BF91AF919F918F917F916F915F910A
:101680004F913F912F910F900FBE0F901F90189583
:101690001F920F920FB60F9211242F933F934F93E7
:1016A0005F936F937F938F939F93AF93BF93EF93CA
:1016B000FF93DF93CF93CDB7DEB7E091BC05F091F8
:1016C000BD050995CF91DF91FF91EF91BF91AF914A
:1016D0009F918F917F916F915F914F913F912F914A
:1016E0000F900FBE0F901F9018951F920F920FB67C
:1016F0000F9211242F933F934F935F936F937F9398
:101700008F939F93AF93BF93EF93FF93DF93CF9309
:10171000CDB7DEB7E091BE05F091BF050995CF9139
:10172000DF91FF91EF91BF91AF919F918F917F9149
:101730006F915F914F913F912F910F900FBE0F903E
:101740001F901895DF93CF93CDB7DEB7A3E5B0E038
:10175000E3E5F0E08081877B8C93A3E5B0E0E3E5EF
:10176000F0E0808188648C93A3E5B0E0E3E5F0E0ED
:1017700080818F7C8C93A3E5B0E0E3E5F0E080818D
:1017800082608C93A3E5B0E0E3E5F0E08081887FA0
:101790008C93A3E5B0E0E3E5F0E0808182608C9378
:1017A000A9E5B0E0E9E5F0E080818D7F8C93CF91F1
:1017B000DF910895DF93CF930F92CDB7DEB7898382
:1017C000A3E5B0E0E3E5F0E08081887F8C93A3E5BA
:1017D000B0E0E3E5F0E090818981892B8C930F9054
:1017E000CF91DF910895DF93CF93CDB7DEB7A3E517
:1017F000B0E0E3E5F0E08081887F8C93E2E5F0E003
:101800001082CF91DF910895DF93CF93CDB7DEB7EC
:10181000A3E5B0E0E3E5F0E08081887F8C93CF9191
:10182000DF910895DF93CF930F92CDB7DEB7898311
:10183000ECE5F0E0898180830F90CF91DF910895EE
:10184000DF93CF930F92CDB7DEB78983ECE5F0E05D
:10185000898180830F90CF91DF910895DF93CF939B
:10186000CDB7DEB7A9E5B0E0E9E5F0E080818160C1
:101870008C93CF91DF910895DF93CF93CDB7DEB7EF
:10188000A9E5B0E0E9E5F0E080818E7F8C93CF910F
:10189000DF910895DF93CF93CDB7DEB7A9E5B0E030
:1018A000E9E5F0E0808182608C93CF91DF9108952B
:1018B000DF93CF93CDB7DEB7A9E5B0E0E9E5F0E07F
:1018C00080818D7F8C93CF91DF910895DF93CF93AB
:1018D000CDB7DEB7E2E5F0E01082CF91DF91089559
:1018E000DF93CF93CDB7DEB7AFE4B0E0EFE4F0E045
:1018F00080818C7F8C93AEE4B0E0EEE4F0E08081F8
:10190000877E8C93AFE4B0E0EFE4F0E0808182600A
:101910008C93AEE4B0E0EEE4F0E0808188618C93DB
:10192000AFE4B0E0EFE4F0E080818F738C93AFE43C
:10193000B0E0EFE4F0E0808180688C93AFE4B0E049
:10194000EFE4F0E080818F7C8C93AFE4B0E0EFE4D3
:10195000F0E0808180628C93AEE4B0E0EEE4F0E0F1
:101960008081887F8C93AEE4B0E0EEE4F0E080818B
:1019700082608C93AEE4B0E0EEE4F0E080818F7B97
:101980008C93A9E5B0E0E9E5F0E080818B7F8C9352
:10199000A9E5B0E0E9E5F0E080818F7E8C93A9E5D0
:1019A000B0E0E9E5F0E08081877F8C93A9E5B0E0C5
:1019B000E9E5F0E080818F7D8C93CF91DF910895F0
:1019C000DF93CF930F92CDB7DEB7898389818823C8
:1019D00041F4AEE4B0E0EEE4F0E080818F7B8C93E4
:1019E0000AC08981813039F4AEE4B0E0EEE4F0E081
:1019F000808180648C930F90CF91DF910895DF9365
:101A0000CF93CDB7DEB7E6E4F0E080819181CF914E
:101A1000DF910895DF93CF930F92CDB7DEB789831F
:101A2000AEE4B0E0EEE4F0E08081887F8C93AEE439
:101A3000B0E0EEE4F0E090818981892B8C930F90E7
:101A4000CF91DF910895DF93CF93CDB7DEB7ECE46C
:101A5000F0E011821082CF91DF910895DF93CF9350
:101A600000D0CDB7DEB79A838983EAE4F0E08981BC
:101A70009A81918380830F900F90CF91DF91089589
:101A8000DF93CF9300D0CDB7DEB79A838983E8E4A4
:101A9000F0E089819A81918380830F900F90CF919C
:101AA000DF910895DF93CF9300D0CDB7DEB79A834F
:101AB0008983E6E4F0E089819A81918380830F90A5
:101AC0000F90CF91DF910895DF93CF93CDB7DEB71D
:101AD000A9E5B0E0E9E5F0E0808184608C93CF91E6
:101AE000DF910895DF93CF93CDB7DEB7A9E5B0E0DE
:101AF000E9E5F0E080818B7F8C93CF91DF910895B1
:101B0000DF93CF93CDB7DEB7A9E5B0E0E9E5F0E02C
:101B1000808180618C93CF91DF910895DF93CF9383
:101B2000CDB7DEB7A9E5B0E0E9E5F0E080818F7ED2
:101B30008C93CF91DF910895DF93CF93CDB7DEB72C
:101B4000A9E5B0E0E9E5F0E0808188608C93CF9171
:101B5000DF910895DF93CF93CDB7DEB7A9E5B0E06D
:101B6000E9E5F0E08081877F8C93CF91DF91089544
:101B7000DF93CF93CDB7DEB7A9E5B0E0E9E5F0E0BC
:101B8000808180628C93CF91DF910895DF93CF9312
:101B9000CDB7DEB7A9E5B0E0E9E5F0E080818F7D63
:101BA0008C93CF91DF910895DF93CF9300D0CDB781
:101BB000DEB79A838983ECE4F0E089819A8191838E
:101BC00080830F900F90CF91DF910895DF93CF9393
:101BD000CDB7DEB7ECE4F0E080819181CF91DF9169
:101BE0000895DF93CF9300D000D0CDB7DEB79B83AD
:101BF0008A836C8319828C81882F90E0880F991FCB
:101C0000FC01EE53FA4F80819181009769F08C813D
:101C1000882F90E0880F991FFC01EE53FA4F8A81BC
:101C20009B819183808302C082E0898389810F90A8
:101C30000F900F900F90CF91DF9108951F920F9208
:101C40000FB60F9211242F933F934F935F936F938F
:101C50007F938F939F93AF93BF93EF93FF93DF9304
:101C6000CF93CDB7DEB7E091C205F091C3050995DA
:101C7000CF91DF91FF91EF91BF91AF919F918F91A4
:101C80007F916F915F914F913F912F910F900FBE78
:101C90000F901F9018951F920F920FB60F9211245C
:101CA0002F933F934F935F936F937F938F939F9364
:101CB000AF93BF93EF93FF93DF93CF93CDB7DEB78F
:101CC000E091C405F091C5050995CF91DF91FF9191
:101CD000EF91BF91AF919F918F917F916F915F91A4
:101CE0004F913F912F910F900FBE0F901F9018951D
:101CF0001F920F920FB60F9211242F933F934F9381
:101D00005F936F937F938F939F93AF93BF93EF9363
:101D1000FF93DF93CF93CDB7DEB7E091C605F09187
:101D2000C7050995CF91DF91FF91EF91BF91AF91D9
:101D30009F918F917F916F915F914F913F912F91E3
:101D40000F900FBE0F901F9018951F920F920FB615
:101D50000F9211242F933F934F935F936F937F9331
:101D60008F939F93AF93BF93EF93FF93DF93CF93A3
:101D7000CDB7DEB7E091CA05F091CB050995CF91BB
:101D8000DF91FF91EF91BF91AF919F918F917F91E3
:101D90006F915F914F913F912F910F900FBE0F90D8
:101DA0001F9018951F920F920FB60F9211242F9328
:101DB0003F934F935F936F937F938F939F93AF93D3
:101DC000BF93EF93FF93DF93CF93CDB7DEB7E0914F
:101DD000C805F091C9050995CF91DF91FF91EF9169
:101DE000BF91AF919F918F917F916F915F914F9133
:101DF0003F912F910F900FBE0F901F9018951F923B
:101E00000F920FB60F9211242F933F934F935F932E
:101E10006F937F938F939F93AF93BF93EF93FF93B2
:101E2000DF93CF93CDB7DEB7E091CC05F091CD0530
:101E30000995CF91DF91FF91EF91BF91AF919F9164
:101E40008F917F916F915F914F913F912F910F9063
:101E50000FBE0F901F9018951F920F920FB60F9202
:101E600011242F933F934F935F936F937F938F939F
:101E70009F93AF93BF93EF93FF93DF93CF93CDB730
:101E8000DEB7E091CE05F091CF050995CF91DF91B6
:101E9000FF91EF91BF91AF919F918F917F916F9142
:101EA0005F914F913F912F910F900FBE0F901F9018
:101EB00018951F920F920FB60F9211242F933F93F4
:101EC0004F935F936F937F938F939F93AF93BF9342
:101ED000EF93FF93DF93CF93CDB7DEB7E091D005BB
:101EE000F091D1050995CF91DF91FF91EF91BF91CD
:101EF000AF919F918F917F916F915F914F913F91A2
:101F00002F910F900FBE0F901F901895DF93CF93D6
:101F1000CDB7DEB7EAE3F0E08FE08083E7E3F0E0FF
:101F20008FEF8083E4E3F0E08FEF8083E1E3F0E084
:101F30008EEF8083EBE3F0E08FEF8083E8E3F0E067
:101F40001082E5E3F0E01082E2E3F0E01082CF914E
:101F5000DF910895DF93CF930F92CDB7DEB78983DA
:101F60008981813041F4AFE5B0E0EFE5F0E08081B8
:101F700080688C930AC08981882339F4AFE5B0E08A
:101F8000EFE5F0E080818F778C930F90CF91DF9118
:101F90000895DF93CF93CDB7DEB727970FB6F894A8
:101FA000DEBF0FBECDBF8A836B8319828B818130E8
:101FB000A9F5AFE5B0E0EFE5F0E0808180688C93B3
:101FC0008A81282F30E03F832E838E819F8181304C
:101FD000910589F02E813F8122303105A1F08E815B
:101FE0009F810097C1F4ABE5B0E0EBE5F0E08081C4
:101FF00080648C9346C0ABE5B0E0EBE5F0E0808117
:1020000080688C933EC0ABE5B0E0EBE5F0E080810A
:1020100080628C9336C081E0898333C08B818823B2
:1020200071F58A81282F30E03D832C838C819D813E
:102030008130910589F02C813D8122303105A1F05C
:102040008C819D810097C1F4ABE5B0E0EBE5F0E059
:1020500080818F7B8C9315C0ABE5B0E0EBE5F0E0C1
:1020600080818F778C930DC0ABE5B0E0EBE5F0E0BD
:1020700080818F7D8C9305C081E0898302C081E0DF
:102080008983898127960FB6F894DEBF0FBECDBF36
:10209000CF91DF910895DF93CF93CDB7DEB7ABE556
:1020A000B0E0EBE5F0E080818F7B8C93ABE5B0E0B6
:1020B000EBE5F0E080818F778C93ABE5B0E0EBE56A
:1020C000F0E080818F7D8C93CF91DF910895DF9335
:1020D000CF93CDB7DEB72D970FB6F894DEBF0FBE06
:1020E000CDBF8A836B8319828B81282F30E03D8797
:1020F0002C878C859D8581309105B9F12C853D8596
:10210000223031052CF48C859D85009771F0ABC091
:102110002C853D852230310509F449C08C859D858B
:102120008330910509F471C09EC08A81282F30E068
:102130003B872A878A859B85009731F02A853B85D6
:102140002130310541F00EC0E5E5F0E0A5E5B0E055
:102150008C9180838AC0E5E5F0E0A5E5B0E08C9144
:10216000808383C081E0898380C08A81282F30E00A
:102170003987288788859985009731F028853985A2
:102180002130310549F010C0A5E5B0E0E5E5F0E00B
:10219000808181608C9369C0A5E5B0E0E5E5F0E061
:1021A000808184608C9361C081E089835EC08A8174
:1021B000282F30E03F832E838E819F8181309105CF
:1021C00089F02E813F8122303105A1F08E819F81DF
:1021D0000097C1F4A5E5B0E0E5E5F0E0808182601C
:1021E0008C9343C0A5E5B0E0E5E5F0E08081886030
:1021F0008C933BC0A4E5B0E0E4E5F0E080818F7B08
:102200008C9333C081E0898330C08A81282F30E0ED
:102210003D832C838C819D818130910589F02C81B7
:102220003D8122303105A1F08C819D810097C1F460
:10223000A5E5B0E0E5E5F0E0808183608C9315C012
:10224000A5E5B0E0E5E5F0E080818C608C930DC001
:10225000A4E5B0E0E4E5F0E0808180648C9305C003
:1022600081E0898302C081E0898389812D960FB640
:10227000F894DEBF0FBECDBFCF91DF910895DF93FD
:10228000CF93CDB7DEB7A5E5B0E0E5E5F0E080811E
:102290008C93A5E5B0E0E5E5F0E080818C93A4E5C2
:1022A000B0E0E4E5F0E080818F7B8C93CF91DF910B
:1022B0000895DF93CF9300D00F92CDB7DEB79B8305
:1022C0008A8319828091D2059091D305009739F0C5
:1022D0008A819B819093D3058093D20502C082E0CE
:1022E000898389810F900F900F90CF91DF9108958E
:1022F0001F920F920FB60F9211242F933F934F937B
:102300005F936F937F938F939F93AF93BF93EF935D
:10231000FF93DF93CF93CDB7DEB7E091D205F09175
:10232000D3050995CF91DF91FF91EF91BF91AF91C7
:102330009F918F917F916F915F914F913F912F91DD
:102340000F900FBE0F901F901895DF93CF9300D082
:1023500000D00F92CDB7DEB78A836B8319828A8152
:10236000843018F081E0898332C08A81282F30E0E0
:102370003D832C838C819D8181309105D1F02C810E
:102380003D81223031052CF48C819D81009761F0D4
:102390001EC02C813D812230310581F08C819D81D0
:1023A0008330910581F013C0EAE3F0E08B818083F4
:1023B0000EC0E7E3F0E08B81808309C0E4E3F0E046
:1023C0008B81808304C0E1E3F0E08B81808389818D
:1023D0000F900F900F900F900F90CF91DF91089575
:1023E000DF93CF9300D000D00F92CDB7DEB78A83B2
:1023F0006B8319828A81843018F081E0898332C02E
:102400008A81282F30E03D832C838C819D8181300F
:102410009105D1F02C813D81223031052CF48C8145
:102420009D81009761F01EC02C813D8122303105D5
:1024300081F08C819D818330910581F013C0EBE3A5
:10244000F0E08B8180830EC0E8E3F0E08B81808335
:1024500009C0E5E3F0E08B81808304C0E2E3F0E0B3
:102460008B81808389810F900F900F900F900F9038
:10247000CF91DF910895DF93CF9300D000D000D0AB
:10248000CDB7DEB78A837C836B8319828A818430DF
:1024900018F081E089833AC08A81282F30E03E839A
:1024A0002D838D819E8181309105E1F02D813E81CA
:1024B000223031052CF48D819E81009761F026C079
:1024C0002D813E8122303105A1F08D819E818330A6
:1024D0009105B1F01BC0E9E3F0E08081EB81FC8164
:1024E000808314C0E6E3F0E08081EB81FC8180838F
:1024F0000DC0E3E3F0E08081EB81FC81808306C0C6
:10250000E0E3F0E08081EB81FC8180838981269685
:102510000FB6F894DEBF0FBECDBFCF91DF91089507
:10252000DF93CF93CDB7DEB728970FB6F894DEBF11
:102530000FBECDBF8A836B834C8319828C8181301F
:1025400009F06FC08A81282F30E038872F838F8170
:1025500098858130910549F12F81388522303105E8
:102560002CF48F819885009761F0D5C02F81388534
:102570002230310571F18F81988583309105E9F121
:10258000CAC0AAE3B0E0EAE3F0E08081482F8B8183
:10259000282F30E081E090E0022E02C0880F991FC2
:1025A0000A94E2F7842B8C93B6C0A7E3B0E0E7E38C
:1025B000F0E08081482F8B81282F30E081E090E08F
:1025C000022E02C0880F991F0A94E2F7842B8C9385
:1025D000A2C0A4E3B0E0E4E3F0E08081482F8B8167
:1025E000282F30E081E090E0022E02C0880F991F72
:1025F0000A94E2F7842B8C938EC0A1E3B0E0E1E370
:10260000F0E08081482F8B81282F30E081E090E03E
:10261000022E02C0880F991F0A94E2F7842B8C9334
:102620007AC08C81882309F074C08A81282F30E019
:102630003E832D838D819E818130910559F12D81BD
:102640003E81223031052CF48D819E81009769F006
:1026500062C02D813E812230310589F18D819E81BC
:102660008330910509F440C056C0AAE3B0E0EAE324
:10267000F0E08081482F8B81282F30E081E090E0CE
:10268000022E02C0880F991F0A94E2F780958423D6
:102690008C9341C0A7E3B0E0E7E3F0E08081482FEE
:1026A0008B81282F30E081E090E0022E02C0880F5D
:1026B000991F0A94E2F7809584238C932CC0A4E39D
:1026C000B0E0E4E3F0E08081482F8B81282F30E0F8
:1026D00081E090E0022E02C0880F991F0A94E2F771
:1026E000809584238C9317C0A1E3B0E0E1E3F0E090
:1026F0008081482F8B81282F30E081E090E0022EEE
:1027000002C0880F991F0A94E2F7809584238C9366
:1027100002C081E08983898128960FB6F894DEBFD4
:102720000FBECDBFCF91DF910895DF93CF93CDB78B
:10273000DEB728970FB6F894DEBF0FBECDBF8A83F1
:102740006B834C8319828C81813009F06FC08A8140
:10275000282F30E038872F838F819885813091052D
:1027600049F12F813885223031052CF48F819885ED
:10277000009761F0D5C02F8138852230310571F185
:102780008F81988583309105E9F1CAC0ABE3B0E051
:10279000EBE3F0E08081482F8B81282F30E081E04F
:1027A00090E0022E02C0880F991F0A94E2F7842B52
:1027B0008C93B6C0A8E3B0E0E8E3F0E08081482F56
:1027C0008B81282F30E081E090E0022E02C0880F3C
:1027D000991F0A94E2F7842B8C93A2C0A5E3B0E082
:1027E000E5E3F0E08081482F8B81282F30E081E005
:1027F00090E0022E02C0880F991F0A94E2F7842B02
:102800008C938EC0A2E3B0E0E2E3F0E08081482F39
:102810008B81282F30E081E090E0022E02C0880FEB
:10282000991F0A94E2F7842B8C937AC08C818823B9
:1028300009F074C08A81282F30E03E832D838D817A
:102840009E818130910559F12D813E8122303105E3
:102850002CF48D819E81009769F062C02D813E81AC
:102860002230310589F18D819E818330910509F4F3
:1028700040C056C0ABE3B0E0EBE3F0E08081482F0E
:102880008B81282F30E081E090E0022E02C0880F7B
:10289000991F0A94E2F7809584238C9341C0A8E3A2
:1028A000B0E0E8E3F0E08081482F8B81282F30E012
:1028B00081E090E0022E02C0880F991F0A94E2F78F
:1028C000809584238C932CC0A5E3B0E0E5E3F0E091
:1028D0008081482F8B81282F30E081E090E0022E0C
:1028E00002C0880F991F0A94E2F7809584238C9385
:1028F00017C0A2E3B0E0E2E3F0E08081482F8B81D3
:10290000282F30E081E090E0022E02C0880F991F4E
:102910000A94E2F7809584238C9302C081E0898336
:10292000898128960FB6F894DEBF0FBECDBFCF9138
:10293000DF910895DF93CF93CDB7DEB727970FB61A
:10294000F894DEBF0FBECDBF8A836B835D834C835B
:1029500019828A81282F30E03F832E834E815F8148
:102960004130510559F18E819F818230910534F4B7
:102970002E813F812115310569F05BC04E815F8159
:102980004230510579F18E819F818330910509F4A0
:102990003DC04FC0E9E3F0E08081282F30E08B811B
:1029A000882F90E0A90102C0559547958A95E2F7D6
:1029B000CA018170EC81FD8180833BC0E6E3F0E0D9
:1029C0008081282F30E08B81882F90E0A90102C000
:1029D000559547958A95E2F7CA018170EC81FD8192
:1029E000808327C0E3E3F0E08081282F30E08B81F3
:1029F000882F90E0A90102C0559547958A95E2F786
:102A0000CA018170EC81FD81808313C0E0E3F0E0B6
:102A10008081282F30E08B81882F90E0A90102C0AF
:102A2000559547958A95E2F7CA018170EC81FD8141
:102A30008083898127960FB6F894DEBF0FBECDBF85
:102A4000CF91DF910895DF93CF93CDB7DEB7E7E263
:102A5000F0E080E48083E6E2F0E086E88083CF91D6
:102A6000DF910895DF93CF9300D0CDB7DEB78A838F
:102A700019828A81813041F4A7E2B0E0E7E2F0E018
:102A8000808180628C930DC08A81882341F4A7E203
:102A9000B0E0E7E2F0E080818F7D8C9302C081E0BE
:102AA000898389810F900F90CF91DF910895DF93F3
:102AB000CF9300D0CDB7DEB78A83E7E2F0E0808124
:102AC000898389818F73898399818A81892B8983FD
:102AD000E7E2F0E0898180830F900F90CF91DF9142
:102AE0000895DF93CF9300D0CDB7DEB78A83E6E2B7
:102AF000F0E0808189838981887F898399818A81B7
:102B0000892B8983E6E2F0E0898180830F900F9022
:102B1000CF91DF910895DF93CF9300D0CDB7DEB78B
:102B20008A8319828A81813041F4A6E2B0E0E6E22C
:102B3000F0E0808180688C930DC08A81882341F405
:102B4000A6E2B0E0E6E2F0E080818F778C9302C0ED
:102B500081E0898389810F900F90CF91DF91089553
:102B6000DF93CF9300D000D0CDB7DEB78B836C83DB
:102B70001A828B818130B9F4A6E2B0E0E6E2F0E09F
:102B8000808180628C93E6E2F0E080818983898194
:102B90008F71898399818C81892B8983E6E2F0E0AA
:102BA000898180830DC08B81882341F4A6E2B0E047
:102BB000E6E2F0E080818F7D8C9302C081E08A8321
:102BC0008A810F900F900F900F90CF91DF91089511
:102BD000DF93CF93CDB7DEB727970FB6F894DEBF5C
:102BE0000FBECDBF8D837F836E831C82809198053D
:102BF000813009F074C0109298051B821A82E7E2B6
:102C0000F0E0808189838981807E898399818D81AB
:102C1000892B8983E7E2F0E089818083A6E2B0E036
:102C2000E6E2F0E0808180648C93E6E2F0E080816F
:102C3000869586958695882F90E081709070009794
:102C400009F04FC0E6E2F0E0808182958F70882F16
:102C500090E081709070009731F48A819B81019699
:102C60009B838A83EFCFA6E2B0E0E6E2F0E08081CA
:102C700080618C938E819F81009771F1E7E2F0E093
:102C80008081829586958770882F90E08170907002
:102C9000882351F0E5E2F0E08081882F90E0EE811A
:102CA000FF819183808314C0E7E2F0E08081829508
:102CB00086958770882F90E081709070009741F41E
:102CC000E4E2F0E080819181EE81FF819183808355
:102CD00081E08093980505C082E08C8302C083E088
:102CE0008C838C8127960FB6F894DEBF0FBECDBFC4
:102CF000CF91DF910895DF93CF93CDB7DEB72897BB
:102D00000FB6F894DEBF0FBECDBF8B837D836C837F
:102D10005F834E831A82809198058130C9F5E7E27E
:102D2000F0E0808189838C819D81009721F48E81E0
:102D30009F81009741F1109298058981807E898357
:102D400099818B81892B8983E7E2F0E089818083F7
:102D50008E819F819093D5058093D4058C819D8130
:102D60009093D7058093D605A6E2B0E0E6E2F0E0C6
:102D7000808180648C93A6E2B0E0E6E2F0E080819E
:102D800088608C9302C082E08A838A81888702C02F
:102D900083E08887888528960FB6F894DEBF0FBE3B
:102DA000CDBFCF91DF9108951F920F920FB60F9272
:102DB00011242F933F934F935F936F937F938F9340
:102DC0009F93AF93BF93EF93FF93DF93CF93CDB7D1
:102DD000DEB7E7E2F0E08081829586958770882FE4
:102DE00090E081709070882369F0A091D605B09131
:102DF000D705E5E2F0E08081882F90E011969C9362
:102E00008E9316C0E7E2F0E0808182958695877008
:102E1000882F90E081709070009751F4E091D60572
:102E2000F091D705A4E2B0E08D919C9191838083CD
:102E300081E080939805E091D405F091D50509953E
:102E4000A6E2B0E0E6E2F0E08081877F8C93CF914C
:102E5000DF91FF91EF91BF91AF919F918F917F9102
:102E60006F915F914F913F912F910F900FBE0F90F7
:102E70001F901895DF93CF93CDB7DEB70E94700CEB
:102E8000CF91DF910895DF93CF93CDB7DEB76F97E2
:102E90000FB6F894DEBF0FBECDBF9E8F8D8F6F8FA4
:102EA0008F8D813009F079C0E8E4F0E08D8D9E8D42
:102EB0009183808380E090E0A0E2B2E4898F9A8FD2
:102EC000AB8FBC8F698D7A8D8B8D9C8D20E030E02F
:102ED0004AEF54E40E942502DC01CB018D8B9E8BCE
:102EE000AF8BB88F6D897E898F89988D20E030E017
:102EF00040E85FE30E942B0488232CF481E090E0FB
:102F00009C8B8B8B3FC06D897E898F89988D20E04B
:102F10003FEF4FE757E40E94CB0318164CF5698D3D
:102F20007A8D8B8D9C8D20E030E040E251E40E9450
:102F30002502DC01CB01BC01CD010E944F00DC0168
:102F4000CB019C8B8B8B0FC088EC90E09A8B898B8C
:102F500089899A890197F1F79A8B898B8B899C894A
:102F600001979C8B8B8B8B899C89009769F791C00B
:102F70006D897E898F89988D0E944F00DC01CB017D
:102F80009C8B8B8B8B899C89988B8F878F8598895D
:102F90000197F1F7988B8F877CC08F8D882309F07C
:102FA00078C0EAE4F0E08D8D9E8D9183808380E08F
:102FB00090E0A0E2B2E48B879C87AD87BE876B85EB
:102FC0007C858D859E8520E030E04AEF54E40E94A8
:102FD0002502DC01CB018F839887A987BA876F818F
:102FE000788589859A8520E030E040E85FE30E949B
:102FF0002B0488232CF481E090E09E838D833FC0D6
:103000006F81788589859A8520E03FEF4FE757E407
:103010000E94CB0318164CF56B857C858D859E85AB
:1030200020E030E040E251E40E942502DC01CB01C7
:10303000BC01CD010E944F00DC01CB019E838D833A
:103040000FC088EC90E09C838B838B819C810197DF
:10305000F1F79C838B838D819E8101979E838D8365
:103060008D819E81009769F714C06F81788589856D
:103070009A850E944F00DC01CB019E838D838D8158
:103080009E819A83898389819A810197F1F79A8336
:1030900089836F960FB6F894DEBF0FBECDBFCF9178
:1030A000DF910895DF93CF93CDB7DEB70E9423154C
:1030B000CF91DF910895DF93CF93CDB7DEB72D97F2
:1030C0000FB6F894DEBF0FBECDBF98878F83698798
:1030D0008F819885CC01A0E0B0E0BC01CD010E94B9
:1030E000AF04DC01CB012091B5053091B6054091CC
:1030F000B7055091B805BC01CD010E942502DC0145
:10310000CB01BC01CD0120E030E040E251E40E945F
:103110001F03DC01CB018B839C83AD83BE831A82AA
:1031200019828985282F30E03D872C878C859D85E5
:1031300081309105A9F02C853D852230310529F19A
:103140008C859D85009709F03FC06B817C818D81C6
:103150009E810E944F00DC01CB019B878A873CC087
:103160006B817C818D819E8123E333E948E853E4C0
:103170000E94F801DC01CB01BC01CD010E944F008F
:10318000DC01CB019B878A8727C06B817C818D8185
:103190009E8126E636E646EE5FE30E942502DC01CC
:1031A000CB01BC01CD0120E030E040E052E40E94C0
:1031B000F801DC01CB01BC01CD010E944F00DC0114
:1031C000CB019B878A8708C081E090E09A8389833E
:1031D00029813A813B872A878A859B852D960FB660
:1031E000F894DEBF0FBECDBFCF91DF910895DF937E
:1031F000CF93CDB7DEB728970FB6F894DEBF0FBEDA
:10320000CDBF8A836B834C8319828B81883018F4FD
:103210008A81843018F081E0898335C18C818130C6
:1032200009F0BAC08A81282F30E038872F838F8138
:1032300098858130910509F43DC02F813885223071
:1032400031052CF48F819885009771F01CC12F8176
:1032500038852230310509F453C08F819885833039
:10326000910509F473C00FC1AAE3B0E0EAE3F0E00E
:103270008081482F8B81282F30E081E090E002C0D0
:10328000880F991F2A95E2F7842B8C93ABE3B0E06B
:10329000EBE3F0E08081482F8B81282F30E081E044
:1032A00090E0022E02C0880F991F0A94E2F7842B47
:1032B0008C93E9C0A7E3B0E0E7E3F0E08081482F1A
:1032C0008B81282F30E081E090E002C0880F991FA9
:1032D0002A95E2F7842B8C93A8E3B0E0E8E3F0E0D2
:1032E0008081482F8B81282F30E081E090E0022EF2
:1032F00002C0880F991F0A94E2F7842B8C93C3C0F5
:10330000A4E3B0E0E4E3F0E08081482F8B81282F34
:1033100030E081E090E002C0880F991F2A95E2F723
:10332000842B8C93A5E3B0E0E5E3F0E08081482FA7
:103330008B81282F30E081E090E0022E02C0880FC0
:10334000991F0A94E2F7842B8C939DC0A1E3B0E00F
:10335000E1E3F0E08081482F8B81282F30E081E08D
:1033600090E002C0880F991F2A95E2F7842B8C9376
:10337000A2E3B0E0E2E3F0E08081482F8B81282FC8
:1033800030E081E090E0022E02C0880F991F0A947D
:10339000E2F7842B8C9377C08C81882309F073C06B
:1033A0008A81282F30E03E832D838D819E8181305C
:1033B000910559F12D813E81223031052CF48D810A
:1033C0009E81009769F05FC02D813E8122303105DA
:1033D00089F18D819E818330910509F440C053C0ED
:1033E000ABE3B0E0EBE3F0E08081482F8B81282F46
:1033F00030E081E090E0022E02C0880F991F0A940D
:10340000E2F7809584238C933EC0A8E3B0E0E8E324
:10341000F0E08081482F8B81282F30E081E090E020
:10342000022E02C0880F991F0A94E2F78095842328
:103430008C9329C0A5E3B0E0E5E3F0E08081482F5C
:103440008B81282F30E081E090E0022E02C0880FAF
:10345000991F0A94E2F7809584238C9314C0A2E309
:10346000B0E0E2E3F0E08081482F8B81282F30E04C
:1034700081E090E0022E02C0880F991F0A94E2F7C3
:10348000809584238C93898128960FB6F894DEBFAB
:103490000FBECDBFCF91DF910895DF93CF93CDB70E
:1034A000DEB72F970FB6F894DEBF0FBECDBF8F8764
:1034B00083E062E040E00E94951383E061E040E039
:1034C0000E94951382E06F850E94F01183E060E016
:1034D00041E00E94951380E090E0A0E0B0E48B878B
:1034E0009C87AD87BE876B857C858D859E8520E01A
:1034F00030E04AEF54E40E942502DC01CB018F83C7
:103500009887A987BA876F81788589859A8520E011
:1035100030E040E85FE30E942B0488232CF481E034
:1035200090E09E838D833FC06F81788589859A85E1
:1035300020E03FEF4FE757E40E94CB0318164CF50D
:103540006B857C858D859E8520E030E040E251E4EE
:103550000E942502DC01CB01BC01CD010E944F007D
:10356000DC01CB019E838D830FC088EC90E09C83AF
:103570008B838B819C810197F1F79C838B838D8159
:103580009E8101979E838D838D819E81009769F72F
:1035900014C06F81788589859A850E944F00DC016F
:1035A000CB019E838D838D819E819A8389838981BE
:1035B0009A810197F1F79A83898383E060E040E084
:1035C0000E9495132F960FB6F894DEBF0FBECDBFA5
:1035D000CF91DF910895DF93CF93CDB7DEB72F97CB
:1035E0000FB6F894DEBF0FBECDBF8F8783E062E0D9
:1035F00041E00E94951383E061E040E00E94951352
:1036000082E06F850E94F01183E060E041E00E945B
:10361000951380E090E0A0E0B0E48B879C87AD87B5
:10362000BE876B857C858D859E8520E030E04AEFE6
:1036300054E40E942502DC01CB018F839887A9877F
:10364000BA876F81788589859A8520E030E040E8E7
:103650005FE30E942B0488232CF481E090E09E839A
:103660008D833FC06F81788589859A8520E03FEF03
:103670004FE757E40E94CB0318164CF56B857C8509
:103680008D859E8520E030E040E251E40E942502D5
:10369000DC01CB01BC01CD010E944F00DC01CB015C
:1036A0009E838D830FC088EC90E09C838B838B81FD
:1036B0009C810197F1F79C838B838D819E8101977B
:1036C0009E838D838D819E81009769F714C06F81E1
:1036D000788589859A850E944F00DC01CB019E8305
:1036E0008D838D819E819A83898389819A810197B7
:1036F000F1F79A83898383E060E040E00E949513AC
:103700002F960FB6F894DEBF0FBECDBFCF91DF91DD
:103710000895DF93CF93CDB7DEB7A6970FB6F89491
:10372000DEBF0FBECDBF80E090E0A0E2B2E48BA38D
:103730009CA3ADA3BEA36BA17CA18DA19EA120E003
:1037400030E04AEF54E40E942502DC01CB018F8F68
:1037500098A3A9A3BAA36F8D78A189A19AA120E00B
:1037600030E040E85FE30E942B0488232CF481E0E2
:1037700090E09E8F8D8F3FC06F8D78A189A19AA117
:1037800020E03FEF4FE757E40E94CB0318164CF5BB
:103790006BA17CA18DA19EA120E030E040E251E42C
:1037A0000E942502DC01CB01BC01CD010E944F002B
:1037B000DC01CB019E8F8D8F0FC088EC90E09C8F39
:1037C0008B8F8B8D9C8D0197F1F79C8F8B8F8D8DBF
:1037D0009E8D01979E8F8D8F8D8D9E8D009769F7A1
:1037E00014C06F8D78A189A19AA10E944F00DC01BD
:1037F000CB019E8F8D8F8D8D9E8D9A8F898F898D18
:103800009A8D0197F1F79A8F898F88E30E944D1A5C
:1038100080E090E0A8E4B2E48D8B9E8BAF8BB88FF4
:103820006D897E898F89988D2BEA3AEA4AE250E4C5
:103830000E942502DC01CB01898B9A8BAB8BBC8B60
:1038400069897A898B899C8920E030E040E85FE3D0
:103850000E942B0488231CF481E0888B91C0698925
:103860007A898B899C8920E030E04FE753E40E94FD
:10387000CB0318160CF07BC06D897E898F89988DDB
:1038800020E030E04AE754E40E941F03DC01CB0152
:103890008C879D87AE87BF876C857D858E859F854C
:1038A00020E030E04AEF54E40E942502DC01CB0125
:1038B00088879987AA87BB87688579858A859B854C
:1038C00020E030E040E85FE30E942B0488232CF4E2
:1038D00081E090E09F838E833FC0688579858A85EB
:1038E0009B8520E03FEF4FE757E40E94CB0318167B
:1038F0004CF56C857D858E859F8520E030E040E22B
:1039000051E40E942502DC01CB01BC01CD010E94E3
:103910004F00DC01CB019F838E830FC088EC90E0C9
:103920009D838C838C819D810197F1F79D838C838E
:103930008E819F8101979F838E838E819F810097C7
:1039400069F724C0688579858A859B850E944F0028
:10395000DC01CB019F838E838E819F819B838A8331
:103960008A819B810197F1F79B838A830FC06989C4
:103970007A898B899C890E944F00DC01CB01888B5E
:103980008889898389818A95F1F789838CE00E94EF
:103990004D1A81E00E944D1AA6960FB6F894DEBF2C
:1039A0000FBECDBFCF91DF910895DF93CF9300D0AD
:1039B0000F92CDB7DEB78A836B8381E08093DB05FE
:1039C0008A818093D9058B818093DA058A81882347
:1039D00019F48B81898306C08A81813019F48B8127
:1039E000805C8983898180680E944D1A0F900F90B6
:1039F0000F90CF91DF910895DF93CF93CDB7DEB7CE
:103A000081E08093D80581E00E944D1ACF91DF912B
:103A10000895DF93CF93CDB7DEB78EE00E944D1AA5
:103A2000CF91DF910895DF93CF93CDB7DEB78CE0D0
:103A30000E944D1ACF91DF910895DF93CF93CDB7B8
:103A4000DEB78FE00E944D1ACF91DF910895DF938A
:103A5000CF93CDB7DEB78CE00E944D1ACF91DF91A6
:103A60000895DF93CF93CDB7DEB788E00E944D1A5B
:103A7000CF91DF910895DF93CF9300D000D0CDB7E1
:103A8000DEB78A836B834C8319828C8189830BC058
:103A900099818B81692F0E94D51C80E20E94EB1ACC
:103AA0008981815089838981482F552747FD509509
:103AB0008C81282F30E08A81882F90E0B901681B23
:103AC000790BCB01841795071CF30F900F900F9083
:103AD0000F90CF91DF910895DF93CF9300D000D066
:103AE000CDB7DEB78A836B834C8319828C8189833F
:103AF0000AC08B8169810E94D51C80E20E94EB1A6A
:103B000089818F5F89838981482F50E08C81282F9C
:103B100030E08A81882F90E0820F931F4817590761
:103B200044F30F900F900F900F90CF91DF91089575
:103B3000DF93CF93CDB7DEB768970FB6F894DEBFAB
:103B40000FBECDBF988F8F8B8F89988D9E838D836D
:103B50001C820DC08C818F5F8C838D819E812AE0B9
:103B600030E0B9010E947526CB019E838D838D8143
:103B70009E81009779F78F89988D9E838D831B8214
:103B80001EC08B81E82FF0E08D819E812AE030E01D
:103B9000B9010E947526282F205DCE010796E80FF7
:103BA000F91F20838D819E812AE030E0B9010E94B7
:103BB0007526CB019E838D838B818F5F8B839B8149
:103BC0008C819817F0F28C81882F90E001979A836E
:103BD00089830FC029813A81CE010796FC01E20F4B
:103BE000F31F80810E94EB1A89819A8101979A8341
:103BF000898389819A8199236CF768960FB6F89426
:103C0000DEBF0FBECDBFCF91DF910895DF93CF937D
:103C100000D00F92CDB7DEB79B838A8319820EC086
:103C20008981282F30E08A819B81FC01E20FF31FFC
:103C300080810E94EB1A89818F5F89838981282F77
:103C400030E08A819B81FC01E20FF31F8081882391
:103C500039F70F900F900F90CF91DF910895DF9378
:103C6000CF93CDB7DEB727970FB6F894DEBF0FBE60
:103C7000CDBF9C838B836D834E832F838D81882F53
:103C800090E0880F991F880F991F880F991F8A83CA
:103C900019828A8180640E944D1A19820EC089811E
:103CA000282F30E08B819C81FC01E20FF31F808183
:103CB0000E94EB1A89818F5F89838981883078F32C
:103CC0008E816F810E94D51C8D810E94EB1A2796F0
:103CD0000FB6F894DEBF0FBECDBFCF91DF91089530
:103CE000DF93CF9300D000D0CDB7DEB78FEF8B83BB
:103CF0001A8219821A825AC08A81882F90E0FC01A8
:103D0000E356FA4F908180E0692F40E00E949513BE
:103D100019823AC08981882F90E0FC01E756FA4F5A
:103D200090819E012C5F3F4F80E0692FA9010E9486
:103D30009A148C81882311F58981482F50E08A815B
:103D4000282F30E0CA01880F991F880F991F820F12
:103D5000931FFC01EF55FA4F80818B830FC089813F
:103D6000882F90E0FC01E756FA4F90819E012C5F6E
:103D70003F4F80E0692FA9010E949A148C8188230B
:103D800071F389818F5F89838981843018F28A81F8
:103D9000882F90E0FC01E356FA4F908180E0692F74
:103DA00041E00E9495138A818F5F8A838A818430E3
:103DB00008F4A2CF8B810F900F900F900F90CF91AE
:103DC000DF910895DF93CF93CDB7DEB782E066E051
:103DD00040E00E94951382E067E041E00E94951365
:103DE000CF91DF910895DF93CF93CDB7DEB782E017
:103DF00067E040E00E94951382E066E041E00E94A7
:103E00009513CF91DF910895DF93CF93CDB7DEB7B0
:103E100082E067E040E00E94951382E066E040E0C7
:103E20000E949513CF91DF910895DF93CF93CDB783
:103E3000DEB7C557D0400FB6F894DEBF0FBECDBF7A
:103E40000E94860F0E941D071CAE1BAE00D0EDB76E
:103E5000FEB7319680E690E0918380830E947909D5
:103E60000F900F90CE01855A9F4F0E94AD07FE0123
:103E7000E55AFF4F8281893509F0B8C000D0EDB70F
:103E8000FEB7319682E890E0918380830E947909A1
:103E90000F900F90CE01855A9F4F0E94AD0700D022
:103EA00000D0EDB7FEB731968CE990E09183808326
:103EB000CE01855A9F4F938382830E9479090F9088
:103EC0000F900F900F90CE01CF969E01255A3F4F35
:103ED000B9010E94D82700D0EDB7FEB7319680EB2C
:103EE00090E0918380830E9479090F900F90CE011A
:103EF000855A9F4F0E94AD0700D000D0EDB7FEB7A6
:103F000031968EEC90E091838083CE01855A9F4F4D
:103F1000938382830E9479090F900F900F900F90E6
:103F2000CE01CF9644969E01255A3F4FB9010E947B
:103F3000D8272DB73EB72C5130400FB6F8943EBF6E
:103F40000FBE2DBF8DB79EB70196E3969FAF8EAF84
:103F5000E397CE01CF96E5969FAF8EAFE5979CE1B4
:103F6000E6969FAFE697E596EEADFFADE59700804C
:103F7000E5962EAD3FADE5972F5F3F4FE5963FAFFE
:103F80002EAFE597E396EEADFFADE3970082E396A3
:103F90002EAD3FADE3972F5F3F4FE3963FAF2EAF80
:103FA000E397E6963FADE6973150E6963FAFE6974A
:103FB000E6968FADE6978823B1F60E940124EDB70F
:103FC000FEB77C960FB6F894FEBF0FBEEDBF0E9401
:103FD000272400D0EDB7FEB7319687EE90E09183AD
:103FE00080830E9479090F900F9030CFFE01E55A2F
:103FF000FF4F82818E3409F029CF00D0EDB7FEB794
:10400000319682E890E0918380830E9479090F9035
:104010000F90CE01855A9F4F0E94AD07CE01855A61
:104020009F4F0E9459248EAF8EAD8F3FA9F400D0D0
:1040300000D0EDB7FEB7319688EF90E09183808392
:10404000CE01855A9F4F938382830E9479090F90F6
:104050000F900F900F90FACE8EAD282F332727FDAB
:10406000309500D000D000D0EDB7FEB7319685E393
:1040700091E091838083CE01855A9F4F9383828301
:10408000358324830E9479092DB73EB72A5F3F4FBD
:104090000FB6F8943EBF0FBE2DBF1AAE3FC000D082
:1040A000EDB7FEB731968DE591E0918380830E9454
:1040B00079090F900F90CE01855A9F4F0E94AD074E
:1040C0002EADCE01855A9F4F622F0E948A258DAF5B
:1040D0008DAD882371F400D0EDB7FEB731968AE735
:1040E00091E0918380830E9479090F900F901CAE1C
:1040F00019C08DAD813079F400D0EDB7FEB731969F
:1041000089E991E0918380830E9479090F900F9053
:104110008CAD8F5F8CAF8AAD8F5F8AAF8AAD8330F5
:1041200008F4BDCF8CAD833009F00EC100D0EDB7DF
:10413000FEB731968FEB91E0918380830E947909DD
:104140000F900F9082E061E041E00E94951319AE5C
:10415000F1C082E064E041E00E94951380E090E0CD
:10416000AAEFB3E48DAB9EABAFABB8AF6DA97EA9A0
:104170008FA998AD20E030E04AEF54E40E94250278
:10418000DC01CB0189AB9AABABABBCAB69A97AA91B
:104190008BA99CA920E030E040E85FE30E942B045B
:1041A00088232CF481E090E098AB8FA73FC069A9E9
:1041B0007AA98BA99CA920E03FEF4FE757E40E9422
:1041C000CB0318164CF56DA97EA98FA998AD20E0F8
:1041D00030E040E251E40E942502DC01CB01BC0149
:1041E000CD010E944F00DC01CB0198AB8FA70FC01F
:1041F00088EC90E09EA78DA78DA59EA50197F1F76D
:104200009EA78DA78FA598A9019798AB8FA78FA57B
:1042100098A9009769F714C069A97AA98BA99CA9E4
:104220000E944F00DC01CB0198AB8FA78FA598A906
:104230009CA78BA78BA59CA50197F1F79CA78BA7A3
:1042400082E064E040E00E94951380E090E0AAEFF5
:10425000B3E48FA398A7A9A7BAA76FA178A589A54A
:104260009AA520E030E04AEF54E40E942502DC01E8
:10427000CB018BA39CA3ADA3BEA36BA17CA18DA1FD
:104280009EA120E030E040E85FE30E942B048823F9
:104290002CF481E090E09AA389A33FC06BA17CA19C
:1042A0008DA19EA120E03FEF4FE757E40E94CB0392
:1042B00018164CF56FA178A589A59AA520E030E0E5
:1042C00040E251E40E942502DC01CB01BC01CD019A
:1042D0000E944F00DC01CB019AA389A30FC088EC98
:1042E00090E098A38F8F8F8D98A10197F1F798A3F5
:1042F0008F8F89A19AA101979AA389A389A19AA1D5
:10430000009769F714C06BA17CA18DA19EA10E94AA
:104310004F00DC01CB019AA389A389A19AA19E8FAA
:104320008D8F8D8D9E8D0197F1F79E8F8D8F89AD2D
:104330008F5F89AF89AD853008F40BCF82E061E0F3
:1043400040E00E94951382CD8CAD882309F07ECD8C
:104350001BAE00D0EDB7FEB7319681E092E09183BD
:1043600080830E9479090F900F9000D0EDB7FEB7BF
:10437000319683E092E0918380830E9479090F90C7
:104380000F9000D0EDB7FEB7319683E392E09183B2
:1043900080830E9479090F900F9000D0EDB7FEB78F
:1043A000319689E592E0918380830E9479090F908C
:1043B0000F9000D0EDB7FEB731968FE792E0918372
:1043C00080830E9479090F900F90CE01855A9F4FEC
:1043D0000E94AD07FE01E55AFF4F8281E82FF0E011
:1043E000E196FFAFEEAFE197E1962EAD3FADE197DD
:1043F0002534310509F4E5C1E1968EAD9FADE19715
:104400008C34910549F0E196EEADFFADE197E434CF
:10441000F10509F47AC0D8C100D0EDB7FEB73196E6
:1044200081E092E0918380830E9479090F900F9040
:1044300000D0EDB7FEB731968BE992E0918380838F
:104440000E9479090F900F9000D0EDB7FEB731961A
:1044500081EC92E0918380830E9479090F900F9004
:1044600000D0EDB7FEB731968DED92E09183808359
:104470000E9479090F900F9000D0EDB7FEB73196EA
:104480008AEF92E0918380830E9479090F900F90C8
:10449000CE01855A9F4F0E94AD07FE01E55AFF4F9E
:1044A00082818F3431F482E060E041E00E94951314
:1044B000B3CFFE01E55AFF4F8281833431F482E0AD
:1044C00060E040E00E949513A7CFFE01E55AFF4F40
:1044D0008281823409F490C100D0EDB7FEB73196E5
:1044E00081E092E0918380830E9479090F900F9080
:1044F00000D0EDB7FEB7319689E193E091838083D8
:104500000E9479090F900F9087CF00D0EDB7FEB7CA
:10451000319681E092E0918380830E9479090F9027
:104520000F9000D0EDB7FEB7319686E393E091830C
:1045300080830E9479090F900F9000D0EDB7FEB7ED
:1045400031968BE593E0918380830E9479090F90E7
:104550000F9000D0EDB7FEB731968DED92E09183CC
:1045600080830E9479090F900F9000D0EDB7FEB7BD
:1045700031968AEF92E0918380830E9479090F90AF
:104580000F90CE01855A9F4F0E94AD07FE01E55A5C
:10459000FF4F82818F3409F077C00E94F31E80E0C4
:1045A00090E0AAE7B4E4898F9A8FAB8FBC8F698DB6
:1045B0007A8D8B8D9C8D20E030E04AEF54E40E9490
:1045C0002502DC01CB018D8B9E8BAF8BB88F6D8963
:1045D0007E898F89988D20E030E040E85FE30E947B
:1045E0002B0488232CF481E090E09C8B8B8B3FC0C4
:1045F0006D897E898F89988D20E03FEF4FE757E4E2
:104600000E94CB0318164CF5698D7A8D8B8D9C8D8D
:1046100020E030E040E251E40E942502DC01CB01C1
:10462000BC01CD010E944F00DC01CB019C8B8B8B28
:104630000FC088EC90E09A8B898B89899A890197C1
:10464000F1F79A8B898B8B899C8901979C8B8B8B3B
:104650008B899C89009769F714C06D897E898F8941
:10466000988D0E944F00DC01CB019C8B8B8B8B893A
:104670009C89988B8F878F8598890197F1F7988B04
:104680008F870E94041F41CFFE01E55AFF4F8281B0
:10469000833409F077C00E94E21E80E090E0AAE730
:1046A000B4E48B879C87AD87BE876B857C858D85C1
:1046B0009E8520E030E04AEF54E40E942502DC01B0
:1046C000CB018F839887A987BA876F817885898581
:1046D0009A8520E030E040E85FE30E942B048823C5
:1046E0002CF481E090E09E838D833FC06F817885BC
:1046F00089859A8520E03FEF4FE757E40E94CB037E
:1047000018164CF56B857C858D859E8520E030E004
:1047100040E251E40E942502DC01CB01BC01CD0145
:104720000E944F00DC01CB019E838D830FC088EC7B
:1047300090E09C838B838B819C810197F1F79C8314
:104740008B838D819E8101979E838D838D819E8138
:10475000009769F714C06F81788589859A850E94D2
:104760004F00DC01CB019E838D838D819E819A83D6
:10477000898389819A810197F1F79A8389830E94BD
:10478000041FC3CEFE01E55AFF4F82818234A1F19E
:1047900000D0EDB7FEB7319681E092E0918380833F
:1047A0000E9479090F900F9000D0EDB7FEB73196B7
:1047B00089E193E0918380830E9479090F900F90A3
:1047C000A4CE81E08BAF18C000D0EDB7FEB7319614
:1047D00081E092E0918380830E9479090F900F908D
:1047E00000D0EDB7FEB7319688E793E091838083E0
:1047F0000E9479090F900F908BAD813009F426CB80
:10480000A8CDDF93CF9300D0CDB7DEB78EE190E097
:104810000E94D3269A83898389819A81BE01695F28
:104820007F4F0E94D82789819A8144969E01255EF8
:104830003F4FB9010E94D827E981FA81158E148E65
:1048400089819A810F900F90CF91DF910895DF9326
:10485000CF9300D0CDB7DEB79A8389838091E005EE
:10486000882379F489819A819093DF058093DE050E
:104870008091DE059091DF059093DD058093DC0546
:104880000EC0E091DE05F091DF0589819A81958F58
:10489000848F89819A819093DF058093DE058091D2
:1048A000E0058F5F8093E0050F900F90CF91DF912F
:1048B00008950F931F93DF93CF93CDB7DEB729975A
:1048C0000FB6F894DEBF0FBECDBF98878F8380915F
:1048D000DC059091DD059E838D838F8198850E94F4
:1048E000DF278C831B821A8241C08C81082F10E045
:1048F0008D819E810E94DF270817190771F51982A3
:104900001AC08981282F30E08D819E81FC01E20F41
:10491000F31F40818981282F30E08F819885FC0129
:10492000E20FF31F8081481751F48B818F5F8B83D7
:1049300089818F5F898399818C81981710F38B818E
:10494000082F10E08D819E810E94DF27081719072C
:1049500019F48A81898711C01B828A818F5F8A83BB
:10496000ED81FE81848D958D9E838D838D819E81C9
:10497000009709F0BACF8FEF8987898529960FB6FE
:10498000F894DEBF0FBECDBFCF91DF911F910F9185
:104990000895DF93CF93CDB7DEB72D970FB6F89478
:1049A000DEBF0FBECDBF9D878C87CE010C960E94C7
:1049B00059248B878B858F3F09F49FC08091DC053C
:1049C0009091DD059A8789878B858823F1F4809102
:1049D000E005813059F48091DC059091DD050E945D
:1049E00080271092DD051092DC057DC0E091DC058A
:1049F000F091DD05848D958D9093DD058093DC0528
:104A000089859A850E9480276EC08B85282F332741
:104A100027FD30958091E005882F90E001972817B9
:104A2000390739F506C0E985FA85848D958D9A8711
:104A30008987E985FA85248D358D8091DE059091F1
:104A4000DF052817390779F7E985FA85158E148E61
:104A50008091DE059091DF0598878F838F819885FF
:104A60000E94802789859A859093DF058093DE05D3
:104A70003AC08091DC059091DD059E838D83E091A5
:104A8000DC05F091DD05848D958D9C838B8381E021
:104A900090E09A83898311C0ED81FE81848D958D8C
:104AA0009E838D83EB81FC81848D958D9C838B838C
:104AB00089819A8101969A8389838B85282F332750
:104AC00027FD309589819A81821793072CF3EB811A
:104AD000FC81848D958DED81FE81958F848F8B81F6
:104AE0009C810E9480278091E00581508093E005A1
:104AF0008FE993E00E94222804C087EB93E00E9494
:104B000022282D960FB6F894DEBF0FBECDBFCF91F1
:104B1000DF9108950F931F93DF93CF93CDB7DEB747
:104B200028970FB6F894DEBF0FBECDBF9E838D834E
:104B30006F838091DC059091DD059C838B831A82C5
:104B400009C0EB81FC81848D958D9C838B838A8148
:104B50008F5F8A839A818F81981798F38D819E81C8
:104B60000E94DF278C018B819C8144960E94DF2765
:104B70000817190749F519821BC08981282F30E0D1
:104B80008D819E81FC01E20FF31F40818981282FD6
:104B900030E08B819C81820F931FFC017496808191
:104BA000481719F081E0888711C089818F5F898358
:104BB0008981082F10E08D819E810E94DF270817D0
:104BC0001907D8F2188602C081E088878885289660
:104BD0000FB6F894DEBF0FBECDBFCF91DF911F910E
:104BE0000F910895DF93CF93CDB7DEB727970FB618
:104BF000F894DEBF0FBECDBF9F838E838E819F81D1
:104C00000E9459248D838D818F3F09F461C080916A
:104C1000DC059091DD059C838B831A8219820BC081
:104C2000EB81FC81848D958D9C838B8389819A8116
:104C300001969A8389838D81282F332727FD30950C
:104C400089819A81821793075CF300D0EDB7FEB794
:104C5000319685EE93E0918380830E940D280F901A
:104C60000F9000D0EDB7FEB731968FEF93E09183B0
:104C700080830E940D280F900F908B819C810E9451
:104C8000E82700D0EDB7FEB7319688E194E0918334
:104C900080830E940D280F900F908B819C819C0136
:104CA0002C5E3F4F00D000D0EDB7FEB7319680E3C9
:104CB00094E091838083338322830E9457280F904E
:104CC0000F900F900F9083E394E00E94222804C07D
:104CD00089E594E00E94222827960FB6F894DEBF5B
:104CE0000FBECDBFCF91DF910895AA1BBB1B51E131
:104CF00007C0AA1FBB1FA617B70710F0A61BB70B4C
:104D0000881F991F5A95A9F780959095BC01CD01F0
:104D1000089597FB092E07260AD077FD04D0E5DF1A
:104D200006D000201AF4709561957F4F0895F6F72C
:104D3000909581959F4F08952F923F924F925F9249
:104D40006F927F928F929F92AF92BF92CF92DF929B
:104D5000EF92FF920F931F93CF93DF93CDB7DEB700
:104D6000CA1BDB0B0FB6F894DEBF0FBECDBF099494
:104D70002A88398848885F846E847D848C849B84EB
:104D8000AA84B984C884DF80EE80FD800C811B81F9
:104D9000AA81B981CE0FD11D0FB6F894DEBF0FBE28
:104DA000CDBFED010895CF93DF93BC018230910513
:104DB00010F462E070E0A091E305B091E405ED012C
:104DC000E0E0F0E040E050E021C088819981861762
:104DD000970769F48A819B81309719F093838283C6
:104DE00004C09093E4058093E305FE0134C0681786
:104DF000790738F44115510519F08417950708F41F
:104E0000AC01FE018A819B819C01E9012097E9F6B2
:104E100041155105A9F1CA01861B970B049708F4A7
:104E2000BA01E0E0F0E02AC08D919C9111978417BF
:104E30009507F9F46417750781F412968D919C918A
:104E40001397309719F09383828304C09093E405FD
:104E50008093E305FD0132964FC0CA01861B970B74
:104E6000FD01E80FF91F6193719302978D939C9355
:104E700043C0FD01828193819C01D9011097A1F665
:104E80008091E1059091E205892B41F48091940590
:104E9000909195059093E2058093E10540919605E8
:104EA000509197054115510541F44DB75EB780917A
:104EB000920590919305481B590B2091E105309183
:104EC000E20524173507B0F4CA01821B930B86173D
:104ED000970780F0AB014E5F5F4F8417950750F046
:104EE000420F531F5093E2054093E105F90161938E
:104EF000719302C0E0E0F0E0CF01DF91CF9108951F
:104F0000CF93DF93009709F450C0EC0122971B82E6
:104F10001A82A091E305B091E405109709F140E0F1
:104F200050E0AC17BD0708F1BB83AA83FE012191B5
:104F30003191E20FF31FAE17BF0779F48D919C9169
:104F40001197280F391F2E5F3F4F39832883129600
:104F50008D919C9113979B838A834115510571F420
:104F6000D093E405C093E30520C012968D919C91E7
:104F70001397AD01009711F0DC01D3CFFA01D38371
:104F8000C28321913191E20FF31FCE17DF0769F43D
:104F900088819981280F391F2E5F3F4FFA01318395
:104FA00020838A819B8193838283DF91CF910895AF
:104FB000FB01DC0101900D920020E1F70895FC0156
:104FC00001900020E9F7809590958E0F9F1F08951E
:104FD0000F931F93CF93DF938C01E091E505F09140
:104FE000E605838180FF11C0E8018091E50590917D
:104FF000E6050E94072D2FEF8F3F920731F089932E
:105000000A9799F72197188202C000E010E0C801C2
:10501000DF91CF911F910F910895A0E0B0E0E3E1FF
:10502000F8E20C94AC26FE01359661917191809165
:10503000E7059091E805AF010E946C282096E2E018
:105040000C94C8260F931F93CF93DF938C01E091AC
:10505000E705F091E805838181FF21C0C0E0D0E041
:105060000DC0E091E705F091E80520853185BF018D
:10507000F9010995892B11F0CFEFDFEFF80181914C
:105080008F01882371F7E091E705F091E80520850D
:1050900031858AE0BF01F9010995892B11F0CFEF25
:1050A000DFEFCE01DF91CF911F910F910895A0E026
:1050B000B0E0EDE5F8E20C94AC26FE013596619186
:1050C00071918091E5059091E605AF010E94CD2B8D
:1050D0002096E2E00C94C826ABE0B0E0E2E7F8E20C
:1050E0000C949C263C012B015A01FC01178216826C
:1050F000838181FD03C06FEF7FEFC6C19AE0892EE7
:105100001E010894211C311CF3012381F20123FDAF
:10511000859123FF81912F01882309F4B2C1853243
:1051200039F423FD859123FF81912F01853229F4E4
:1051300090E0B3010E94492DE7CF982FFF24EE2481
:105140009924FFE1FF15D0F09B3269F09C3228F4DE
:10515000903259F0933291F40EC09D3249F0903361
:1051600069F441E024C052E0F52A84E0F82A28C01E
:1051700098E0F92A25C0E0E1FE2A22C0F7FC29C008
:10518000892F80538A3070F4F6FE05C0989C902CCD
:105190001124980E15C0E89CE02C1124E80EF0E2D2
:1051A000FF2A0EC09E3229F4F6FC6BC140E4F42ABB
:1051B00007C09C3619F450E8F52A02C0983649F425
:1051C000F20123FD959123FF91912F01992309F07D
:1051D000B8CF892F8554833018F08052833038F44B
:1051E00044E050E0A40EB51E5FE359830FC0933630
:1051F00031F0933779F0933509F056C020C0F501AE
:105200008081898342E050E0A40EB51E610101E077
:1052100010E012C0F501C080D180F6FC03C06FEF32
:105220007FEF02C0692D70E042E050E0A40EB51E91
:10523000C6010E94FC2C8C015FE7F52214C0F50129
:10524000C080D180F6FC03C06FEF7FEF02C0692DF4
:1052500070E042E050E0A40EB51EC6010E94F12CA1
:105260008C0150E8F52AF3FE07C01AC080E290E0F6
:10527000B3010E94492DEA948E2D90E0081719077A
:10528000A8F30EC0F601F7FC8591F7FE81916F013E
:1052900090E0B3010E94492DE110EA9401501040C2
:1052A0000115110579F7EAC0943611F0993669F5C0
:1052B000F7FE08C0F501208131814281538184E0ED
:1052C00090E00AC0F501808191819C01442737FD5F
:1052D0004095542F82E090E0A80EB91E9FE6F92277
:1052E00057FF09C050954095309521953F4F4F4F3E
:1052F0005F4FE0E8FE2ACA01B901A1012AE030E0CF
:105300000E948F2DD82ED21840C0953729F41F2D1A
:105310001F7E2AE030E01DC01F2D197F9F3661F0EF
:10532000903720F4983509F0ACC00FC0903739F0B1
:10533000983709F0A6C004C028E030E00AC0106128
:1053400014FD146020E130E004C014FD166020E17B
:1053500032E017FF08C0F50160817181828193817D
:1053600044E050E008C0F50180819181BC0180E0FB
:1053700090E042E050E0A40EB51EA1010E948F2DE6
:10538000D82ED2188FE7F82EF122F6FE0BC05EEF72
:10539000F522D91438F4F4FE07C0F2FC05C08FEEF4
:1053A000F82202C01D2D01C0192DF4FE0DC0FE0112
:1053B000ED0DF11D8081803319F499EEF92208C0BA
:1053C0001F5FF2FE05C003C08F2D867809F01F5FB6
:1053D0000F2DF3FC14C0F0FE0FC01E1510F09D2C15
:1053E0000BC09D2C9E0C911A1E2D06C080E290E0F1
:1053F000B3010E94492D1F5F1E15C0F304C01E1586
:1054000010F4E11A01C0EE2404FF0FC080E390E025
:10541000B3010E94492D02FF1DC001FD03C088E7B2
:1054200090E00EC088E590E00BC0802F867891F068
:1054300001FF02C08BE201C080E2F7FC8DE290E048
:10544000B3010E94492D06C080E390E0B3010E94A1
:10545000492D9A94D914C0F3DA94F101ED0DF11DA0
:10546000808190E0B3010E94492DDD20A9F706C09C
:1054700080E290E0B3010E94492DEA94EE20C1F74A
:1054800043CEF30166817781CB012B96E2E10C9448
:10549000B826FC0120FD08C023FD05C022FF02C084
:1054A00073836283518340830895EF92FF920F9339
:1054B0001F9344FF02C033E011C046FF02C034E036
:1054C0000DC0DB01FC01AA0FBB1FEE1FFF1F1094D4
:1054D000D1F76A0F7B1F8E1F9F1F31E0660F771F6A
:1054E000881F991F3150D1F77B018C01E20EF11C0E
:1054F000011D111DA8019701B701CA011F910F914C
:10550000FF90EF9008950F931F93CF93DF938C013B
:10551000C8010E94072DEC0197FD08C00E94DE2CF7
:10552000892BB1F7CE01B8010E94752DCE01DF9114
:10553000CF911F910F910895A0E0B0E0E2EAFAE266
:105540000C94A426EC01C62E5A01122F0E94072D9E
:10555000AC018B3219F08D3251F41068CA9409F401
:105560006DC0CE010E94072DAC0197FD67C06DEFA5
:10557000D62ED1228D2D807301F54033F1F4CA94DB
:1055800009F447C0CE010E94072DAC0197FD41C030
:1055900082E0D82A483711F0483559F480E4D82AF7
:1055A000CA94B9F1CE010E94072DAC0199232CF4C5
:1055B00030C0D6FC02C080E1D82AEE24FF24870147
:1055C000242F2053283088F0D4FC09C02A3068F0FA
:1055D000D6FE05C02F7D822F8151863028F0CA016A
:1055E000BE010E94752D12C02750C801B7014D2D74
:1055F0000E94552A7B018C0182E0D82ACA9461F06E
:10560000CE010E94072DAC0197FFDACFD1FC04C078
:1056100015C0EE24FF248701D7FE08C01095009521
:10562000F094E094E11CF11C011D111DC501B801AD
:10563000A7012D2D0E94492A81E001C080E0CDB74D
:10564000DEB7EAE00C94C026A0E2B0E0EAE2FBE2BA
:105650000C94A0266C01A62E8A017901FE013196D8
:1056600080E2DF011D928A95E9F770E030E060E0AA
:1056700040E050E04F01A1E0B0E0F6018381F70186
:1056800083FD259183FF21917F01222309F47EC0B0
:105690002E3519F44115510569F1872F90E08417D3
:1056A000950744F42D3551F12D3221F4332329F49B
:1056B00031E021C0332309F4622F322F832F8695E6
:1056C00086958695F401E80FF11D832F87703D01C3
:1056D00002C0660C771C8A95E2F720812629208378
:1056E000361711F430E007C0361710F43F5FE6CFED
:1056F0003150E4CF71E04F5F5F4FBFCF332319F0DC
:105700008E8180628E83772359F0FE0131969E014F
:105710002F5D3F4F808180958193E217F307D1F78A
:10572000BB24B3944E010894811C911CC6010E94B5
:10573000072DAC0197FD22C0869586958695F401CC
:10574000E80FF11D808190E09A012770307002C04F
:10575000959587952A95E2F780FD05C0CA01B601A7
:105760000E94752D0BC00115110519F0D8014D933C
:105770008D01AA94BB24AA20C9F602C0BB2031F433
:105780000115110529F0F801108202C0EE24FF2452
:10579000C701A096EEE00C94BC26A0E0B0E0E3EDDB
:1057A000FBE20C94A0265C016B013A01FC0117821C
:1057B00016828824EAC0812F90E00E94DE2C892B7B
:1057C00021F0C5010E94832AE0C0153249F4F60198
:1057D000F3FC6591F3FE61916F01653269F415E2A6
:1057E000C5010E94072D97FDDCC0181709F4CDC034
:1057F000B5010E94752DDAC06A3219F0162F00E04B
:1058000006C0F3FC1591F3FE11916F0101E099249C
:105810000FC00260692D70E080E090E040E20E94DD
:10582000552A962EF601F3FC1591F3FE11916F01A6
:10583000212F20532A3068F301FD03C099249A9444
:1058400003C0992009F4B2C0183621F01C3699F42F
:10585000F6010BC0F601F3FC6591F3FE6191683629
:1058600019F06F01162F07C008600460F3FC159152
:10587000F3FE11916F01112309F498C084E590E0C3
:10588000612F70E00E94E62C892B09F48FC0802FD5
:1058900000FF03C0EE24FF2407C0F301E080F18085
:1058A00022E030E0620E731E1E3651F4F50146818F
:1058B000578160E070E0C701202F0E94492A65C02F
:1058C000133691F481FD02C099249394C5010E947E
:1058D000072D97FD66C0E114F10419F0F7018193DB
:1058E0007F019A9499F74FC01B3559F4C501692D72
:1058F000A70196010E94242B6C01009709F043C078
:105900003DC0C5010E94832A97FD4BC01F3659F147
:10591000103728F4143629F1193639F527C0133712
:1059200019F0153711F51DC0C5010E94072DEC01B6
:1059300097FD11C00E94DE2C892B29F0CE01B50104
:105940000E94752D08C0E114F10419F0F701C1930C
:105950007F019A9449F7E114F104A9F0F70110824C
:1059600012C0006203C0006101C00064C501692D5E
:10597000A701202F0E949C2A882329F4F501838106
:10598000807379F413C000FF8394F501F380F6016E
:10599000F3FC1591F3FE11916F01112309F00BCF68
:1059A00005C0882019F42FEF3FEF02C0282D30E00A
:1059B000C901CDB7DEB7EEE00C94BC2691110DC144
:1059C000803219F089508550D0F70895FC01059078
:1059D000061621F00020D9F7C00108953197CF01B4
:1059E0000895FC010590615070400110D8F7809532
:1059F00090958E0F9F1F0895FC016150704001909B
:105A00000110D8F7809590958E0F9F1F0895CF9322
:105A1000DF93EC014B8140FF1AC046FF0AC04F7B69
:105A20004B838E819F8101969F838E838A81282F4D
:105A30002BC042FF13C0E881F9818081282F3327D2
:105A400027FD30952115310529F440624B832FEF56
:105A50003FEF1BC03196F983E88311C0EA85FB85CF
:105A6000CE0109959C0197FF0AC09B812F5F3F4F94
:105A700011F080E201C080E1892B8B83E8CF8E8119
:105A80009F8101969F838E8330E0C901DF91CF9182
:105A900008950F931F93CF93DF938C01EB018B81BC
:105AA00081FF1BC082FF0DC02E813F818C819D81B3
:105AB0002817390764F4E881F9810193F983E883B1
:105AC00006C0E885F985802F0995892B31F48E81F0
:105AD0009F8101969F838E8302C00FEF1FEFC80145
