:100000000C9430000C94F90B0C944D000C944D00A2
:100010000C942E0B0C94070B0C94E00A0C94B90A68
:100020000C94920A0C946B0A0C94440A0C941D0ACA
:100030000C944D000C94E8070C940F080C943608AF
:100040000C94020E0C944D000C944D000C944D0039
:100050000C944D006364696E6F70737578585B0023
:1000600011241FBECFE5D8E0DEBFCDBF15E0A0E66E
:10007000B0E0E6E4F9E302C005900D92AA3BB107B7
:10008000D9F715E0AAEBB5E001C01D92AB3EB10770
:10009000E1F70E9498120C94A11C0C940000EF92BE
:1000A000FF920F931F937B018C0120E030E040E032
:1000B0005FE40E94CB0388238CF0C801B70120E0E5
:1000C00030E040E05FE40E94C7010E942B049B01E6
:1000D000AC01205030404040504806C0C801B70134
:1000E0000E942B049B01AC01B901CA011F910F9121
:1000F000FF90EF900895A0E0B0E0E1E8F0E00C940C
:100100005615DC012B01FA019C91923008F439C19B
:10011000EB018881823008F433C1943069F4843073
:1001200009F02FC111969C9111978981981709F4B4
:1001300028C1AAE8B4E025C1843009F421C1823085
:10014000A9F4923009F01DC19A01AD0188E0EA01DD
:100150000990AE01E90109929E018150C1F7E201C7
:10016000898111969C918923818308C1923009F479
:1001700007C112962D903C901397EB018A819B81C9
:100180001496AD90BD90CD90DC901797EC80FD80DB
:100190000E811F819101281B390BB90137FF04C063
:1001A00066277727621B730B603271050CF061C004
:1001B000121613066CF537014801062E04C09694FA
:1001C0008794779467940A94D2F721E030E040E076
:1001D00050E004C0220F331F441F551F6A95D2F709
:1001E00021503040404050402E213F214023512398
:1001F000211531054105510521F021E030E040E0B5
:1002000050E079018A01E628F728082919293CC01D
:10021000232BD1F1260E371E35014601062E04C0D0
:1002200096948794779467940A94D2F721E030E00B
:1002300040E050E004C0220F331F441F551F6A9551
:10024000D2F721503040404050402A213B214C21E0
:100250005D21211531054105510521F021E030E0F6
:1002600040E050E059016A01A628B728C828D928DB
:100270000BC0821593052CF01C01AA24BB24650138
:1002800003C0EE24FF24870111969C91D2011196A0
:100290008C91981709F445C0992339F0A80197016A
:1002A0002A193B094C095D0906C0A60195012E19C2
:1002B0003F09400B510B57FD08C011823382228247
:1002C00024833583468357831DC081E08183338235
:1002D000228288279927DC01821B930BA40BB50B84
:1002E00084839583A683B7830DC0220F331F441FD9
:1002F000551F2483358346835783828193810197D9
:10030000938382832481358146815781DA01C90133
:100310000197A109B1098F5F9F4FAF4FBF4328F3EA
:100320000BC0918333822282EA0CFB1C0C1D1D1D25
:10033000E482F5820683178383E0808324813581FC
:100340004681578157FF1AC0C901AA2797FDA0957A
:10035000BA2F81709070A070B07056954795379500
:100360002795822B932BA42BB52B84839583A6836F
:10037000B78382819381019693838283DF0101C0D9
:10038000D201CD01CDB7DEB7E2E10C947215A0E247
:10039000B0E0EDECF1E00C94621569837A838B8315
:1003A0009C832D833E834F835887E9E0EE2EF12C0A
:1003B000EC0EFD1ECE010196B7010E941C068E01B7
:1003C0000F5E1F4FCE010596B8010E941C068A8958
:1003D00091E089278A8BC701B801AE01475E5F4F64
:1003E0000E947B000E944705A096E6E00C947E15D3
:1003F000A0E2B0E0EEEFF1E00C94621569837A833D
:100400008B839C832D833E834F835887F9E0EF2EA7
:10041000F12CEC0EFD1ECE010196B7010E941C06C8
:100420008E010F5E1F4FCE010596B8010E941C067B
:10043000C701B801AE01475E5F4F0E947B000E947A
:100440004705A096E6E00C947E15A0E2B0E0EBE252
:10045000F2E00C94561569837A838B839C832D83F9
:100460003E834F835887CE010196BE01675F7F4F61
:100470000E941C06CE010596BE016F5E7F4F0E9452
:100480001C069985923088F089898230C8F09430B2
:1004900019F4823051F404C0843029F4923081F48C
:1004A0008AE894E0C6C0923049F420E09A858A89AF
:1004B000981321E02A87CE010996BBC0823049F407
:1004C00020E09A858A89981321E02A8BCE014196F3
:1004D000B0C02D843E844F8458886D887E888F8874
:1004E000988CEE24FF248701AA24BB24650140E0F8
:1004F00050E060E070E0E0E0F0E0C10181709070F9
:10050000892BE9F0E60CF71C081D191D9A01AB01B7
:100510002A0D3B1D4C1D5D1D80E090E0A0E0B0E089
:10052000E614F7040805190520F481E090E0A0E046
:10053000B0E0BA01A901480F591F6A1F7B1FAA0C1E
:10054000BB1CCC1CDD1C97FE08C081E090E0A0E045
:10055000B0E0A82AB92ACA2ADB2A3196E032F1058E
:1005600049F0660C771C881C991C56944794379464
:100570002794C3CFFA85EA892B893C898B859C8592
:10058000280F391F2E5F3F4F17C0CA01817090702E
:10059000892B61F016950795F794E79480E090E039
:1005A000A0E0B0E8E82AF92A0A2B1B2B769567957C
:1005B000579547952F5F3F4F77FDE7CF0CC0440F0E
:1005C000551F661F771F17FD4160EE0CFF1C001FB3
:1005D000111F21503040403090E0590790E06907EA
:1005E00090E4790760F32B8F3C8FDB01CA018F7792
:1005F0009070A070B07080349105A105B10561F4D0
:1006000047FD0AC0E114F1040105110529F0405C21
:100610005F4F6F4F7F4F40781A8EFE1711F081E0C9
:100620008A8F4D8F5E8F6F8F78A383E0898FCE0185
:1006300049960E944705A096E2E10C947215A8E144
:10064000B0E0E5E2F3E00C945E1569837A838B8376
:100650009C832D833E834F835887B9E0EB2EF12C8A
:10066000EC0EFD1ECE010196B7010E941C068E0104
:100670000F5E1F4FCE010596B8010E941C0629850A
:10068000223008F47EC03989323010F4B8017CC0C1
:100690008A859A8989278A87243011F0223031F49B
:1006A000231709F06EC06AE874E06EC0343039F484
:1006B0001D861E861F86188A1C861B8604C0323043
:1006C00021F484E08987B7015FC02B853C858B8945
:1006D0009C89281B390B3C872B87ED84FE840F8572
:1006E0001889AD88BE88CF88D88CEA14FB040C0525
:1006F0001D0540F4EE0CFF1C001F111F215030405F
:100700003C872B8720E030E040E050E080E090E044
:10071000A0E0B0E460E070E0EA14FB040C051D0505
:1007200040F0282B392B4A2B5B2BEA18FB080C09CD
:100730001D09B695A79597958795EE0CFF1C001F90
:10074000111F6F5F7F4F6F31710531F7DA01C901FA
:100750008F779070A070B07080349105A105B105BD
:1007600061F427FD0AC0E114F1040105110529F027
:10077000205C3F4F4F4F5F4F20782D873E874F873C
:10078000588BBE01675F7F4FCB010E94470568967B
:10079000EAE00C947A15A8E1B0E0E1EDF3E00C9406
:1007A000621569837A838B839C832D833E834F8379
:1007B000588789E0E82EF12CEC0EFD1ECE01019643
:1007C000B7010E941C068E010F5E1F4FCE010596D9
:1007D000B8010E941C068985823040F089898230E8
:1007E00028F0C701B8010E94940601C08FEF6896F7
:1007F000E6E00C947E15A8E1B0E0E1E0F4E00C94B2
:10080000621569837A838B839C832D833E834F8318
:10081000588789E0E82EF12CEC0EFD1ECE010196E2
:10082000B7010E941C068E010F5E1F4FCE01059678
:10083000B8010E941C068985823040F08989823087
:1008400028F0C701B8010E94940601C081E06896B3
:10085000E6E00C947E15ACE0B0E0E1E3F4E00C944B
:10086000661569837A838B839C83CE010196BE01D2
:100870006B5F7F4F0E941C068D81823061F1823058
:1008800050F1843021F48E81882351F12EC02F81C4
:10089000388537FD20C06E812F3131051CF066236D
:1008A000F9F023C08EE190E0821B930B29853A85F5
:1008B0004B855C8504C056954795379527958A9555
:1008C000D2F76623B1F050954095309521953F4F72
:1008D0004F4F5F4F0EC020E030E040E050E009C0D5
:1008E0002FEF3FEF4FEF5FE704C020E030E040E044
:1008F00050E8B901CA012C96E2E00C948215A8E0F8
:10090000B0E0E5E8F4E00C945E157B018C01611524
:1009100071058105910519F482E0898360C083E047
:1009200089838EE1C82ED12CDC82CB82ED82FE82BF
:100930000F831887C801B7010E94F804FC013197A2
:10094000F7FF3BC0222733272E1B3F0B57016801BF
:10095000022E04C0D694C794B794A7940A94D2F7F1
:1009600040E050E060E070E081E090E0A0E0B0E0C6
:1009700004C0880F991FAA1FBB1F2A95D2F70197A1
:10098000A109B1098E219F21A023B1230097A105C0
:10099000B10521F041E050E060E070E04A295B29B8
:1009A0006C297D294D835E836F8378878EE190E08B
:1009B0008E1B9F0B9C838B8312C0309781F00E2E71
:1009C00004C0EE0CFF1C001F111F0A94D2F7ED8229
:1009D000FE820F831887CE1ADF0ADC82CB821A824E
:1009E000CE0101960E9447052896EAE00C947A15FC
:1009F000EF92FF920F931F937B018C0180E0E8162A
:100A000080E0F80681E0080780E0180788F48FEF9F
:100A1000E816F1040105110531F028F088E090E0B6
:100A2000A0E0B0E017C080E090E0A0E0B0E012C02D
:100A300080E0E81680E0F80680E0080781E018070B
:100A400028F088E190E0A0E0B0E004C080E190E010
:100A5000A0E0B0E020E230E040E050E0281B390B9D
:100A60004A0B5B0B04C016950795F794E7948A959B
:100A7000D2F7F701EE56FB4F8081281B310941095F
:100A80005109C9011F910F91FF90EF900895DF92D6
:100A9000EF92FF920F931F93FC01E480F580068193
:100AA0001781D1808081823048F480E090E0A0E11D
:100AB000B0E0E82AF92A0A2B1B2BA5C0843009F4E0
:100AC0009FC0823021F4EE24FF24870105C0E11489
:100AD000F1040105110519F4E0E0F0E096C062812F
:100AE00073819FEF623879070CF05BC022E83FEF1B
:100AF000261B370B2A3131052CF020E030E040E096
:100B000050E02AC0B801A701022E04C0769567956F
:100B1000579547950A94D2F781E090E0A0E0B0E0C5
:100B200004C0880F991FAA1FBB1F2A95D2F70197EF
:100B3000A109B1098E219F21A023B1230097A1050E
:100B4000B10521F081E090E0A0E0B0E09A01AB01B6
:100B5000282B392B4A2B5B2BDA01C9018F77907038
:100B6000A070B07080349105A105B10539F427FF5C
:100B700009C0205C3F4F4F4F5F4F04C0215C3F4F87
:100B80004F4F5F4FE0E0F0E02030A0E03A07A0E0F8
:100B90004A07A0E45A0710F0E1E0F0E079018A0189
:100BA00027C06038710564F5FB01E158FF4FD8019B
:100BB000C7018F779070A070B07080349105A10547
:100BC000B10539F4E7FE0DC080E490E0A0E0B0E0AC
:100BD00004C08FE390E0A0E0B0E0E80EF91E0A1F29
:100BE0001B1F17FF05C016950795F794E7943196DC
:100BF00087E016950795F794E7948A95D1F705C095
:100C0000EE24FF248701EFEFF0E06E2F6795662753
:100C10006795902F9F77D794DD24D7948E2F869554
:100C2000492F462B582F5D29B701CA011F910F91FB
:100C3000FF90EF90DF900895FC01DB01408151812E
:100C40002281622F6F7770E0221F2227221F93815B
:100C5000892F880F822B282F30E0991F9927991F01
:100C600011969C93119721153105A9F54115510550
:100C70006105710511F482E037C082E89FEF139699
:100C80009C938E9312979A01AB0167E0220F331F5A
:100C9000441F551F6A95D1F783E08C930DC0220F36
:100CA000331F441F551F12968D919C9113970197E6
:100CB00013969C938E931297203080E0380780E043
:100CC000480780E4580758F314962D933D934D93AD
:100CD0005C93179708952F3F310579F4411551051D
:100CE0006105710519F484E08C93089564FF03C0D5
:100CF00081E08C9312C01C9210C02F573040139685
:100D00003C932E93129783E08C9387E0440F551FFA
:100D1000661F771F8A95D1F7706414964D935D9383
:100D20006D937C93179708951F93DC01FB019C91B1
:100D3000923008F447C08081823008F443C0943078
:100D400051F411961C91843099F58181682F70E0DF
:100D5000611B71093FC0843021F0923031F4823040
:100D6000B9F18181882389F12DC011961C911197C9
:100D70008230F1F081811817D9F412962D913C91AF
:100D80001397828193818217930794F0281739076C
:100D9000BCF014968D919D910D90BC91A02D248155
:100DA000358146815781281739074A075B0718F4B0
:100DB000112341F00AC082179307A407B50740F436
:100DC000112319F061E070E005C06FEF7FEF02C002
:100DD00060E070E0CB011F9108955998589857989A
:100DE0005698559880B58F7C80BD80B5806880BD51
:100DF00080B5897F80BD80B5866880BD80B580BDA7
:100E000080B580BD80B580BD83E389B910BC8AB14F
:100E100088618AB908958BB1829581700895DC014B
:100E20005F9BFECF8CB18C9390E008C09F5F5F9B6F
:100E3000FECF8CB1FD01E90FF11D8083FD01E90FAB
:100E4000F11D8081833291F7108208958BB18695D0
:100E500086958695817008958BB18695869581706B
:100E60000895962F682F70E084E0660F771F8A95AB
:100E7000E1F7892F90E00E9443156150704080B5E2
:100E80008F7780BD69B9872F8F7780BD08958CB922
:100E90005D9BFECF08955F9BFECF8CB108950F93AD
:100EA0001F93DF93CF93CDB7DEB760970FB6F8945B
:100EB000DEBF0FBECDBFFC019C0140E007C04F5F0D
:100EC000C9016AE070E00E942F159B0121153105D0
:100ED000B1F78E010F5F1F4F3E2F2F2FF80110C06B
:100EE000832F922F6AE070E00E942F15805D81931E
:100EF000832F922F6AE070E00E942F15362F272F44
:100F00008E2F801B841760F3842F90E0FE01E80F82
:100F1000F91F9E012F5F3F4F280F391F8095909535
:100F2000280F391F05C080818CB95D9BFECF31979A
:100F3000E217F307C1F760960FB6F894DEBF0FBE55
:100F4000CDBFCF91DF911F910F910895EF92FF9246
:100F50000F931F93CF93DF937B018C010E944F006F
:100F6000DC01CB01EC010E944F078EE28CB95D9B46
:100F7000FECFBE0180E090E00E947F049B01AC01A7
:100F8000C801B7010E94C70120E030E543EC57E4F7
:100F90000E9425020E944F00DC01CB010E944F07F6
:100FA000DF91CF911F910F91FF90EF9008959C01D9
:100FB000E62FF0E0EE0FFF1FE654FA4F808191819B
:100FC000892B11F482E008953183208380E0089515
:100FD0001F920F920FB60F9211242F933F934F93AE
:100FE0005F936F937F938F939F93AF93BF93EF9391
:100FF000FF93E091BA05F091BB050995FF91EF9140
:10100000BF91AF919F918F917F916F915F914F9120
:101010003F912F910F900FBE0F901F9018951F9228
:101020000F920FB60F9211242F933F934F935F931C
:101030006F937F938F939F93AF93BF93EF93FF93A0
:10104000E091BC05F091BD050995FF91EF91BF912D
:10105000AF919F918F917F916F915F914F913F9150
:101060002F910F900FBE0F901F9018951F920F9207
:101070000FB60F9211242F933F934F935F936F936B
:101080007F938F939F93AF93BF93EF93FF93E091E1
:10109000BE05F091BF050995FF91EF91BF91AF910A
:1010A0009F918F917F916F915F914F913F912F9180
:1010B0000F900FBE0F901F901895AC01DC010D90A2
:1010C0000020E9F71197A81BB90B90E020E030E071
:1010D00009C0FA01E20FF31F8081853209F49F5F96
:1010E0002F5F3F4F2A173B07A0F3892F08956F9278
:1010F0007F928F929F92AF92BF92CF92DF92EF92A8
:10110000FF920F931F93DF93CF93CDB7DEB761E1CB
:10111000E62EF12CEC0EFD1EF701019111917F01DD
:10112000C8010E945D0850E2652E46E4842E912C91
:101130003DE2732EA9C0953209F06FC06801089492
:10114000C11CD11CF80181818436A1F4F701808192
:10115000918197FF03C07CB85D9BFECF22E030E019
:10116000E20EF31E97FF03C0909581959F4F0E945A
:101170004F077EC0863649F524E0A22EB12CAE0C76
:10118000BF1CF701E080F18002811381C801B70123
:101190000E942B04672B99F0C801B70120E030E0D2
:1011A00040E050E00E94FB0388231CF47CB85D9B68
:1011B000FECFC801B7019F770E94A60704C080E058
:1011C00090E00E944F07750153C0833631F4F70158
:1011D00080818CB95D9BFECF1BC0833709F044C072
:1011E000F70120813181D9010D900020E9F7119795
:1011F000A21BB30B90E007C0E20FF31F80818CB9F4
:101200005D9BFECF9F5FE92FF0E0EA17FB07A0F39D
:1012100022E030E0E20EF31E2BC09C3529F5F801E8
:1012200081818E36B9F48091C0059091C105A401E9
:10123000481B590B20E004C06CB85D9BFECF2F5FAC
:10124000822F90E084179507B8F31092C105109291
:10125000C0050DC0843741F480E06CB85D9BFECFC3
:101260008F5F8730D1F703C09CB95D9BFECF6801CB
:1012700086010F5F1F4F8091C0059091C1050196B7
:101280009093C1058093C005F8019081992309F0DE
:1012900052CFCF91DF911F910F91FF90EF90DF9090
:1012A000CF90BF90AF909F908F907F906F90089558
:1012B00083B7877B83BF83B7886483BF83B78F7C03
:1012C00083BF83B7826083BF83B7887F83BF83B7C1
:1012D000826083BF89B78D7F89BF089593B7987F58
:1012E00093BF93B7982B93BF089583B7887F83BF2D
:1012F00012BE089583B7887F83BF08958CBF089579
:101300008CBF089589B7816089BF089589B78E7FA2
:1013100089BF089589B7826089BF089589B78D7F95
:1013200089BF089512BE08958FB58C7F8FBD8EB58D
:10133000877E8EBD8FB582608FBD8EB588618EBD74
:101340008FB58F738FBD8FB580688FBD8FB58F7C44
:101350008FBD8FB580628FBD8EB5887F8EBD8EB5F7
:1013600082608EBD8EB58F7B8EBD89B78B7F89BF26
:1013700089B78F7E89BF89B7877F89BF89B78F7DFE
:1013800089BF0895882321F48EB58F7B8EBD089583
:10139000813019F48EB580648EBD089526B537B5B9
:1013A000C90108959EB5987F9EBD9EB5982B9EBDA0
:1013B00008951DBC1CBC08959BBD8ABD089599BDB0
:1013C00088BD089597BD86BD089589B7846089BF9B
:1013D000089589B78B7F89BF089589B7806189BFD8
:1013E000089589B78F7E89BF089589B7886089BFBE
:1013F000089589B7877F89BF089589B7806289BFBB
:10140000089589B78F7D89BF08959DBD8CBD0895CE
:101410002CB53DB5C90108959C01E62FF0E0EE0F13
:10142000FF1FEE53FA4F80819181892B11F482E0E6
:1014300008953183208380E008951F920F920FB6A4
:101440000F9211242F933F934F935F936F937F934A
:101450008F939F93AF93BF93EF93FF93E091C20558
:10146000F091C3050995FF91EF91BF91AF919F91C5
:101470008F917F916F915F914F913F912F910F903D
:101480000FBE0F901F9018951F920F920FB60F92DC
:1014900011242F933F934F935F936F937F938F9379
:1014A0009F93AF93BF93EF93FF93E091C405F091A7
:1014B000C5050995FF91EF91BF91AF919F918F91D4
:1014C0007F916F915F914F913F912F910F900FBE40
:1014D0000F901F9018951F920F920FB60F92112424
:1014E0002F933F934F935F936F937F938F939F932C
:1014F000AF93BF93EF93FF93E091C605F091C705BB
:101500000995FF91EF91BF91AF919F918F917F913D
:101510006F915F914F913F912F910F900FBE0F9060
:101520001F9018951F920F920FB60F9211242F93B0
:101530003F934F935F936F937F938F939F93AF935B
:10154000BF93EF93FF93E091CA05F091CB05099506
:10155000FF91EF91BF91AF919F918F917F916F918B
:101560005F914F913F912F910F900FBE0F901F9061
:1015700018951F920F920FB60F9211242F933F933D
:101580004F935F936F937F938F939F93AF93BF938B
:10159000EF93FF93E091C805F091C9050995FF917C
:1015A000EF91BF91AF919F918F917F916F915F91DB
:1015B0004F913F912F910F900FBE0F901F90189554
:1015C0001F920F920FB60F9211242F933F934F93B8
:1015D0005F936F937F938F939F93AF93BF93EF939B
:1015E000FF93E091CC05F091CD050995FF91EF9126
:1015F000BF91AF919F918F917F916F915F914F912B
:101600003F912F910F900FBE0F901F9018951F9232
:101610000F920FB60F9211242F933F934F935F9326
:101620006F937F938F939F93AF93BF93EF93FF93AA
:10163000E091CE05F091CF050995FF91EF91BF9113
:10164000AF919F918F917F916F915F914F913F915A
:101650002F910F900FBE0F901F9018951F920F9211
:101660000FB60F9211242F933F934F935F936F9375
:101670007F938F939F93AF93BF93EF93FF93E091EB
:10168000D005F091D1050995FF91EF91BF91AF91F0
:101690009F918F917F916F915F914F913F912F918A
:1016A0000F900FBE0F901F9018958FE08ABB9FEF91
:1016B00097BB94BB8EEF81BB9BBB18BA15BA12BA0D
:1016C0000895813021F48FB780688FBF08958823F3
:1016D00019F48FB78F778FBF0895982F613099F4E1
:1016E0008FB780688FBF913041F0913018F0923001
:1016F000F1F406C08BB7806417C08BB7806814C044
:101700008BB7806211C0662391F4813041F0813043
:1017100018F0823061F406C08BB78F7B05C08BB7A1
:101720008F7702C08BB78F7D8BBF80E0089581E0FB
:1017300008958BB78F7B8BBF8BB78F778BBF8BB7A2
:101740008F7D8BBF0895613069F0613028F0623081
:10175000A1F06330A9F521C0882311F0813081F513
:1017600085B727C0882319F0813051F503C085B7AC
:1017700081601FC085B784601CC0813041F081301A
:1017800018F08230E9F406C085B7826012C085B7D0
:1017900088600FC084B78F7B10C0813041F08130EA
:1017A00018F0823069F407C085B7836002C085B73E
:1017B0008C6085BF03C084B7806484BF80E00895D7
:1017C00081E0089585B785BF85B785BF84B78F7BD6
:1017D00084BF08959C018091D2059091D305892BF7
:1017E00011F482E008953093D3052093D20580E070
:1017F00008951F920F920FB60F9211242F933F93CB
:101800004F935F936F937F938F939F93AF93BF9308
:10181000EF93FF93E091D205F091D3050995FF91E5
:10182000EF91BF91AF919F918F917F916F915F9158
:101830004F913F912F910F900FBE0F901F901895D1
:10184000843010F081E00895813049F0813028F033
:10185000823039F0833031F407C06ABB03C067BB04
:1018600001C064BB80E0089561BB80E008958430CE
:1018700010F081E00895813049F0813028F0823005
:1018800039F0833031F407C06BBB03C068BB01C0C3
:1018900065BB80E0089562BB80E00895FB01843061
:1018A00010F081E00895813049F0813028F08230D5
:1018B00039F0833039F408C089B303C086B301C05E
:1018C00083B3808380E0089580B3808380E00895AF
:1018D0004130B1F5813099F0813030F08230D1F073
:1018E000833009F06BC021C02AB381E090E002C0D0
:1018F000880F991F6A95E2F7282B2ABB5DC027B392
:1019000081E090E002C0880F991F6A95E2F7282BCA
:1019100027BB52C024B381E090E002C0880F991F1A
:101920006A95E2F7282B24BB47C021B381E090E001
:1019300002C0880F991F6A95E2F7282B21BB3CC093
:10194000442311F081E00895813099F0813028F02E
:101950008230D9F0833091F524C02AB381E090E041
:1019600002C0880F991F6A95E2F7809582238ABB8F
:1019700023C027B381E090E002C0880F991F6A95C9
:10198000E2F78095822387BB17C024B381E090E003
:1019900002C0880F991F6A95E2F78095822384BB65
:1019A0000BC021B381E090E002C0880F991F6A95B7
:1019B000E2F78095822381BB80E0089580E008955E
:1019C0004130B1F5813099F0813030F08230D1F082
:1019D000833009F06BC021C02BB381E090E002C0DE
:1019E000880F991F6A95E2F7282B2BBB5DC028B39F
:1019F00081E090E002C0880F991F6A95E2F7282BDA
:101A000028BB52C025B381E090E002C0880F991F27
:101A10006A95E2F7282B25BB47C022B381E090E00E
:101A200002C0880F991F6A95E2F7282B22BB3CC0A1
:101A3000442311F081E00895813099F0813028F03D
:101A40008230D9F0833091F524C02BB381E090E04F
:101A500002C0880F991F6A95E2F7809582238BBB9D
:101A600023C028B381E090E002C0880F991F6A95D7
:101A7000E2F78095822388BB17C025B381E090E010
:101A800002C0880F991F6A95E2F78095822385BB73
:101A90000BC022B381E090E002C0880F991F6A95C5
:101AA000E2F78095822382BB80E0089580E008956C
:101AB000FA01813049F0813028F0823039F08330EA
:101AC00081F406C089B305C086B303C083B301C0E7
:101AD00080B390E002C0959587956A95E2F7817092
:101AE000808380E0089580E487B986E886B9089508
:101AF000813019F43D9A80E00895882311F081E047
:101B000008953D9880E0089597B19F73982B97B9F9
:101B1000089596B1987F982B96B90895813019F45D
:101B2000379A80E00895882311F081E0089537986E
:101B300080E00895813039F4359A86B18F71862B13
:101B400086B980E00895882311F081E008953598E2
:101B500080E00895982FFB0180919805813011F065
:101B600083E008951092980587B1807E892B87B90C
:101B7000369A86B186958695869580FF02C080E06C
:101B80000895349BFECF349A309711F482E0089583
:101B900087B182958695877080FF04C085B1808368
:101BA00011820AC087B182958695877080FD04C036
:101BB00084B195B19183808381E08093980580E022
:101BC0000895982F80919805813011F083E0089551
:101BD00087B16115710529F44115510511F482E0B1
:101BE000089510929805807E892B87B95093D70568
:101BF0004093D6057093D5056093D405369A339AF1
:101C000080E008951F920F920FB60F9211242F9328
:101C10003F934F935F936F937F938F939F93AF9374
:101C2000BF93EF93FF9387B182958695877080FF6E
:101C300008C085B1E091D405F091D505808311826B
:101C40000EC087B182958695877080FD08C084B1EB
:101C500095B1E091D405F091D5059183808381E021
:101C600080939805E091D605F091D70509953398B2
:101C7000FF91EF91BF91AF919F918F917F916F9164
:101C80005F914F913F912F910F900FBE0F901F903A
:101C90001895613061F499BD88BD80E991E028EC28
:101CA00030E0F9013197F1F70197D9F708956623EC
:101CB00059F49BBD8ABD80E991E028EC30E0F90140
:101CC0003197F1F70197D9F708950E949409089583
:101CD0001F93162FA0E0B0E0BC01CD010E947F044D
:101CE00020E030E44CE950E40E94250220E030E09E
:101CF00040E251E40E941F03113039F01130B0F07E
:101D0000123041F061E070E013C023E333E948E8AA
:101D100053E40AC026E636E646EE5FE30E9425025B
:101D200020E030E040E052E40E94F8010E944F00C1
:101D3000CB011F9108950E94730D0895683008F03B
:101D400085C0843008F082C0413009F042C0813043
:101D5000B1F0813030F0823001F1833009F078C089
:101D60002AC08AB321E030E002C0220F331F6A95F7
:101D7000E2F7822B8ABB8BB3282B2BBB65C087B3C2
:101D800021E030E002C0220F331F6A95E2F7822B78
:101D900087BB88B3282B28BB57C084B321E030E031
:101DA00002C0220F331F6A95E2F7822B84BB85B3F2
:101DB000282B25BB49C081B321E030E002C0220FAF
:101DC000331F6A95E2F7822B81BB82B3282B22BB9B
:101DD0003BC0442309F03CC0813099F0813028F0A9
:101DE0008230D9F08330A1F524C02BB381E090E09C
:101DF00002C0880F991F6A95E2F7809582238BBBFA
:101E000023C028B381E090E002C0880F991F6A9533
:101E1000E2F78095822388BB17C025B381E090E06C
:101E200002C0880F991F6A95E2F78095822385BBCF
:101E30000BC022B381E090E002C0880F991F6A9521
:101E4000E2F78095822382BB80E0089581E00895C7
:101E500080E008951F93182F83E062E041E00E9424
:101E6000E00C83E061E040E00E94E00C82E0612F42
:101E70000E94370C83E060E041E00E94E00C84EFB8
:101E800091E00197F1F783E060E040E00E94E00C10
:101E90001F9108951F93CF93DF93EC0110E003C0CF
:101EA0000E942A0F1F5FFE01E10FF11D8081882330
:101EB000B9F7DF91CF911F9108950F931F93DF938F
:101EC000CF93CDB7DEB760970FB6F894DEBF0FBEE5
:101ED000CDBFFC019C0140E007C04F5FC9016AE033
:101EE00070E00E942F159B0121153105B1F78E017D
:101EF0000F5F1F4F3E2F2F2FF80110C0832F922FFF
:101F00006AE070E00E942F15805D8193832F922FED
:101F10006AE070E00E942F15362F272F8E2F801B2E
:101F2000841760F38E010F5F1F4F040F111D04C053
:101F3000F80180810E942A0F015010400C171D07E4
:101F4000B9F760960FB6F894DEBF0FBECDBFCF9144
:101F5000DF911F910F9108951F93182F83E062E086
:101F600040E00E94E00C83E061E040E00E94E00C71
:101F700082E0612F0E94370C83E060E041E00E9424
:101F8000E00C84EF91E00197F1F783E060E040E03E
:101F90000E94E00C1F91089588E00E94AC0F089504
:101FA0008CE00E94AC0F08958FE00E94AC0F089562
:101FB0008CE00E94AC0F08958EE00E94AC0F089553
:101FC00081E08093D8050E94AC0F0895982F81E09E
:101FD0008093DB059093D9056093DA05992319F076
:101FE000913009F4605C862F80680E94AC0F0895E0
:101FF0000F931F93CF93DF93062F142FC82FD0E09A
:10200000C40FD11D08C0802F612F0E94E60F80E20F
:102010000E942A0F1F5F812F90E08C179D079CF371
:10202000DF91CF911F910F910895CF92DF92EF92A0
:10203000FF920F931F93CF93DF93E62EF42EC0E011
:10204000D0E0C42EDD24C7FCD094042F10E0081B80
:10205000110909C06F2D6C1B8E2D0E94E60F80E2C6
:102060000E942A0F2196C6018C1B9D0B0817190789
:102070008CF3DF91CF911F910F91FF90EF90DF9044
:10208000CF900895DF92EF92FF920F931F93CF931B
:10209000DF938C01F62EE42ED22E862F880F880F28
:1020A000880F80640E94AC0FC0E0D0E0F801EC0F14
:1020B000FD1F80810E942A0F2196C830D105B1F7FB
:1020C0008E2D6D2D0E94E60F8F2D0E942A0FDF911D
:1020D000CF911F910F91FF90EF90DF90089580E1D5
:1020E00097E20197F1F788E30E94AC0F80E18A95AF
:1020F000F1F78CE00E94AC0F81E00E94AC0F0895D4
:102100007F928F929F92AF92BF92CF92DF92EF9287
:10211000FF920F931F93DF93CF930F92CDB7DEB74C
:1021200077247A94CC24DD244E010894811C911CE0
:10213000F601EB55FA4FA08080E06A2D40E00E9446
:10214000E00C01EA15E089EAE82E85E0F82EEC0CB7
:10215000FD1CF801B08080E06B2DA4010E94580D99
:102160008981882341F4F701708005C080E06B2DE0
:10217000A4010E94580D89818823C1F30F5F1F4F6E
:1021800084E090E0E80EF91E95E0053A190709F79A
:1021900080E06A2D41E00E94E00C0894C11CD11C33
:1021A000E4E0CE16D10421F6872D0F90CF91DF9178
:1021B0001F910F91FF90EF90DF90CF90BF90AF9065
:1021C0009F908F907F90089582E067E040E00E94AA
:1021D000E00C82E066E040E00E94E00C089582E0BE
:1021E00067E040E00E94E00C82E066E041E00E948F
:1021F000E00C089582E066E040E00E94E00C82E09E
:1022000067E041E00E94E00C08952091E005222360
:1022100049F49093DF058093DE059093DD0580936C
:10222000DC050AC0E091DE05F091DF05958F848F13
:102230009093DF058093DE052F5F2093E0050895DE
:102240000F931F93CF93DF938C012091DC05309186
:10225000DD0580E004C0F901248D358D8F5F861780
:10226000D0F3E80109900020E9F72197C01BD10BBA
:10227000D9015496FD0101900020E9F73197EA1B3E
:10228000FB0BCE17DF07A1F440E00BC0F801EA0F0B
:10229000FB1FA20FB31F908154968C91981741F4A5
:1022A0004F5FA42FB0E0AC17BD0780F380E001C002
:1022B00081E0DF91CF911F910F910895FF920F93CD
:1022C0001F93CF93DF93F82E092FC091DC05D09197
:1022D000DD05A82FB92FFD0101900020E9F7319706
:1022E0001E2F181B50E0612F70E028C0FE010190E6
:1022F0000020E9F73197EC1BFD0B6E177F07D1F437
:102300008F2D902F9C01D90120E030E009C0FE0103
:10231000E20FF31F90818D912F5F3F4F981719F4B3
:10232000422F2117A0F3842F90E08617970711F40E
:10233000852F07C05F5F0C8CDD8DC02D2097B1F617
:102340008FEFDF91CF911F910F91FF900895CF9361
:10235000DF930E945E118F3F09F444C0C091DC05F9
:10236000D091DD0520E030E0992787FD909505C0EC
:102370000C8CDD8DC02D2F5F3F4F28173907C4F31C
:1023800000D080E690E0EDB7FEB7928381830E9493
:10239000BE168AE790E0EDB7FEB7928381830E9474
:1023A000BE160F900F90CE010E94991600D083E9BF
:1023B00090E0EDB7FEB7928381830E94BE1600D0F5
:1023C0008BEA90E0EDB7FEB7928381836496D48365
:1023D000C3830E9408170F900F900F900F908EEA02
:1023E00090E002C084ED90E00E94D316DF91CF917F
:1023F00008950F931F93DF93CF9300D0CDB7DEB72F
:102400009A838983CE0101960E945E118F3F09F461
:102410005EC0E091DC05F091DD059091E005882338
:1024200091F4913041F4CF010E943A161092DD05EB
:102430001092DC0544C0848D958D9093DD058093CA
:10244000DC05CF013AC0682F772767FD7095892F8B
:1024500090E0019768177907C9F48091DE059091A3
:10246000DF059F01048CF58DE02DE817F907C9F70A
:102470008901D9015D961C921E925C97CF010E9442
:102480003A161093DF050093DE0519C0A48DB58DB3
:1024900021E030E006C0048CF58DE02DDA012F5FDD
:1024A0003F4F5C964C915C975D965C915D972617CB
:1024B00037078CF3448F558FCD010E943A168091D7
:1024C000E00581508093E00585E091E002C08DE158
:1024D00091E00E94D3160F900F90CF91DF911F9142
:1024E0000F910895FF920F931F93DF93CF93CDB772
:1024F000DEB78EE190E00E948D15F92E082F192F7E
:10250000C801BE01685F7F4F0E949216C8014496C1
:10251000BE01645E7F4F0E949216F801158E148EE4
:10252000802F9F2DCF91DF911F910F91FF900895E4
:102530002F923F924F925F926F927F928F929F92D3
:10254000AF92BF92CF92DF92EF92FF920F931F93C1
:10255000DF93CF93CDB7DEB7E0970FB6F894DEBF29
:102560000FBECDBF0E94550B0E94ED06DD24FCEE90
:102570006F2EF2E07F2E00D0EBE4F1E0ADB7BEB7F6
:102580001296FC93EE9311970E9477080F900F908C
:102590007E010894E11CF11CC7010E940F078B818A
:1025A000893509F076C000D08DE691E0ADB7BEB7B1
:1025B00012969C938E9311970E9477080F900F901C
:1025C000C7010E940F0700D000D087E891E0EDB767
:1025D000FEB792838183F482E3820E9477080F9092
:1025E0000F900F900F908E010B5E1F4FC801B70127
:1025F0000E94921600D08BE991E0ADB7BEB712965B
:102600009C938E9311970E9477080F900F90C701AB
:102610000E940F0700D000D089EB91E0EDB7FEB724
:1026200092838183F482E3820E9477080F900F9057
:102630000F900F90CE018996B7010E9492162DB788
:102640003EB72C5130400FB6F8943EBF0FBE2DBFA1
:10265000ADB7BEB71196F8018CE101900D92815093
:10266000E1F70E947212ADB7BEB75C960FB6F89450
:10267000BEBF0FBEADBF0E94051100D082ED91E03C
:10268000EDB7FEB7928381830E9477080F900F9079
:1026900072CF8E3409F06FCF00D08DE691E0ADB7E8
:1026A000BEB712969C938E9311970E9477080F9055
:1026B0000F90C7010E940F07C7010E945E11182FDB
:1026C0008F3F89F400D000D083EE91E0EDB7FEB7E4
:1026D00092838183F482E3820E9477080F900F90A7
:1026E0000F900F9048CF00D000D000D0EDB7FEB7CC
:1026F000319680E292E0ADB7BEB712969C938E936E
:102700001197F382E282812F992787FD9095958317
:1027100084830E94770800E0EDB7FEB736960FB6C7
:10272000F894FEBF0FBEEDBFE8E48E2EE2E09E2ED1
:1027300074E8A72E72E0B72E00D0ADB7BEB71296E0
:102740009C928E9211970E9477080F900F90C7016C
:102750000E940F07C701612F0E942011882361F496
:1027600000D085E692E0EDB7FEB7928381830E94A8
:1027700077080F900F9052C0813011F08D2D0DC051
:1027800000D0ADB7BEB71296BC92AE9211970E9420
:1027900077088D2D8F5F0F900F900F5F033011F032
:1027A000D82ECACFD82EB3E08B17A9F500D08AEA6D
:1027B00092E0EDB7FEB7928381830E9477080F9075
:1027C0000F9082E061E041E00E94E00C00E068ECE4
:1027D000E62EF12C82E064E041E00E94E00C88E803
:1027E00093E1F7013197F1F70197D9F782E064E0BF
:1027F00040E00E94E00C88E893E1F7013197F1F79F
:102800000197D9F70F5F053029F782E061E040E0DA
:102810000E94E00CB0CE882309F0ADCE5EEE252EEE
:1028200052E0352E4EE1442E43E0542E34E4C32EC4
:1028300033E0D32E2AE6822E23E0922E8E010F5F04
:102840001F4F98ECE92EF12C83E6A82E84E0B82ED9
:1028500000D0ADB7BEB712967C926E9211970E94CF
:102860007708EDB7FEB7328221820E947708ADB7B4
:10287000BEB712965C924E9211970E947708EDB700
:10288000FEB7D282C1820E947708ADB7BEB712965A
:102890009C928E9211970E9477080F900F90C8011A
:1028A0000E940F078B81853431F08C3431F08434F1
:1028B00009F0C3C05CC0DD245ECE00D0EDB7FEB72A
:1028C000728261820E947708E6E8F3E0ADB7BEB796
:1028D0001296FC93EE9311970E947708ECEAF3E0CE
:1028E000ADB7BEB71296FC93EE9311970E9477088E
:1028F000E8ECF3E0ADB7BEB71296FC93EE931197F8
:102900000E947708E5EEF3E0ADB7BEB71296FC93F0
:10291000EE9311970E9477080F900F90C8010E94C4
:102920000F078B818F3421F482E060E041E005C025
:10293000833431F482E060E040E00E94E00CBDCFDF
:10294000823409F485CF00D0ADB7BEB712967C9221
:102950006E9211970E94770824E034E0EDB7FEB73D
:10296000328321830E9477080F900F90A6CF00D06A
:10297000ADB7BEB712967C926E9211970E947708FF
:1029800021E234E0EDB7FEB7328321830E9477085D
:10299000E6E4F4E0ADB7BEB71296FC93EE93119760
:1029A0000E947708E8ECF3E0ADB7BEB71296FC934F
:1029B000EE9311970E947708E5EEF3E0ADB7BEB74E
:1029C0001296FC93EE9311970E9477080F900F9048
:1029D000C8010E940F078B818F3451F40E94EF10C1
:1029E00080E197E2F7013197F1F70197D9F70BC032
:1029F000833461F40E94FA1080E197E2F701319785
:102A0000F1F70197D9F70E94E410B1CF823409F4AD
:102A10001FCF00D0ADB7BEB712967C926E921197C1
:102A20000E94770824E034E0EDB7FEB732832183BB
:102A30000E9477080F900F909ACF00D0ADB7BEB725
:102A400012967C926E9211970E947708EDB7FEB7AE
:102A5000B282A1820E9477080F900F90F9CEAA1B34
:102A6000BB1B51E107C0AA1FBB1FA617B70710F079
:102A7000A61BB70B881F991F5A95A9F780959095AB
:102A8000BC01CD01089597FB092E07260AD077FDDA
:102A900004D0E5DF06D000201AF4709561957F4FD1
:102AA0000895F6F7909581959F4F08952F923F9244
:102AB0004F925F926F927F928F929F92AF92BF924E
:102AC000CF92DF92EF92FF920F931F93CF93DF93FA
:102AD000CDB7DEB7CA1BDB0B0FB6F894DEBF0FBE57
:102AE000CDBF09942A88398848885F846E847D84A4
:102AF0008C849B84AA84B984C884DF80EE80FD80A6
:102B00000C811B81AA81B981CE0FD11D0FB6F8941B
:102B1000DEBF0FBECDBFED010895CF93DF93BC01A3
:102B20008230910510F462E070E0A091E305B0916D
:102B3000E405ED01E0E0F0E040E050E021C08881F4
:102B400099818617970769F48A819B81309719F0DC
:102B50009383828304C09093E4058093E305FE0190
:102B600034C06817790738F44115510519F08417F6
:102B7000950708F4AC01FE018A819B819C01E90163
:102B80002097E9F641155105A9F1CA01861B970B5B
:102B9000049708F4BA01E0E0F0E02AC08D919C911E
:102BA000119784179507F9F46417750781F4129645
:102BB0008D919C911397309719F09383828304C071
:102BC0009093E4058093E305FD0132964FC0CA015E
:102BD000861B970BFD01E80FF91F61937193029714
:102BE0008D939C9343C0FD01828193819C01D90107
:102BF0001097A1F68091E1059091E205892B41F4AF
:102C000080919405909195059093E2058093E1055C
:102C100040919605509197054115510541F44DB7E6
:102C20005EB78091920590919305481B590B2091B6
:102C3000E1053091E20524173507B0F4CA01821B83
:102C4000930B8617970780F0AB014E5F5F4F841799
:102C5000950750F0420F531F5093E2054093E10552
:102C6000F9016193719302C0E0E0F0E0CF01DF91E0
:102C7000CF910895CF93DF93009709F450C0EC01F2
:102C800022971B821A82A091E305B091E405109768
:102C900009F140E050E0AC17BD0708F1BB83AA83FF
:102CA000FE0121913191E20FF31FAE17BF0779F4B6
:102CB0008D919C911197280F391F2E5F3F4F3983BB
:102CC000288312968D919C9113979B838A8341153B
:102CD000510571F4D093E405C093E30520C012962A
:102CE0008D919C911397AD01009711F0DC01D3CF2A
:102CF000FA01D383C28321913191E20FF31FCE17E2
:102D0000DF0769F488819981280F391F2E5F3F4FB3
:102D1000FA01318320838A819B8193838283DF91AF
:102D2000CF910895FB01DC0101900D920020E1F7A5
:102D300008950F931F93CF93DF938C01E091E505E6
:102D4000F091E605838180FF11C0E8018091E505DF
:102D50009091E6050E94B81B2FEF8F3F920731F04C
:102D600089930A9799F72197188202C000E010E032
:102D7000C801DF91CF911F910F910895A0E0B0E0BD
:102D8000E4ECF6E10C946615FE01359661917191C3
:102D90008091E7059091E805AF010E941D172096EC
:102DA000E2E00C9482150F931F93CF93DF938C0175
:102DB000E091E705F091E805838181FF21C0C0E043
:102DC000D0E00DC0E091E705F091E8052085318560
:102DD000BF01F9010995892B11F0CFEFDFEFF80161
:102DE00081918F01882371F7E091E705F091E80563
:102DF000208531858AE0BF01F9010995892B11F001
:102E0000CFEFDFEFCE01DF91CF911F910F910895AA
:102E1000A0E0B0E0EEE0F7E10C946615FE01359617
:102E2000619171918091E5059091E605AF010E9455
:102E30007E1A2096E2E00C948215ABE0B0E0E3E26B
:102E4000F7E10C9456153C012B015A01FC01178245
:102E50001682838181FD03C06FEF7FEFC6C19AE0C8
:102E6000892E1E010894211C311CF3012381F201DB
:102E700023FD859123FF81912F01882309F4B2C19D
:102E8000853239F423FD859123FF81912F0185320D
:102E900029F490E0B3010E94FA1BE7CF982FFF249A
:102EA000EE249924FFE1FF15D0F09B3269F09C32AB
:102EB00028F4903259F0933291F40EC09D3249F0CB
:102EC000903369F441E024C052E0F52A84E0F82A06
:102ED00028C098E0F92A25C0E0E1FE2A22C0F7FCCC
:102EE00029C0892F80538A3070F4F6FE05C0989C63
:102EF000902C1124980E15C0E89CE02C1124E80EAB
:102F0000F0E2FF2A0EC09E3229F4F6FC6BC140E4C9
:102F1000F42A07C09C3619F450E8F52A02C0983606
:102F200049F4F20123FD959123FF91912F019923FB
:102F300009F0B8CF892F8554833018F08052833040
:102F400038F444E050E0A40EB51E5FE359830FC08F
:102F5000933631F0933779F0933509F056C020C09D
:102F6000F5018081898342E050E0A40EB51E610125
:102F700001E010E012C0F501C080D180F6FC03C072
:102F80006FEF7FEF02C0692D70E042E050E0A40EC9
:102F9000B51EC6010E94AD1B8C015FE7F52214C06F
:102FA000F501C080D180F6FC03C06FEF7FEF02C057
:102FB000692D70E042E050E0A40EB51EC6010E94EB
:102FC000A21B8C0150E8F52AF3FE07C01AC080E26C
:102FD00090E0B3010E94FA1BEA948E2D90E008174E
:102FE0001907A8F30EC0F601F7FC8591F7FE819151
:102FF0006F0190E0B3010E94FA1BE110EA940150C6
:1030000010400115110579F7EAC0943611F0993690
:1030100069F5F7FE08C0F5012081318142815381B5
:1030200084E090E00AC0F501808191819C014427F1
:1030300037FD4095542F82E090E0A80EB91E9FE620
:10304000F92257FF09C050954095309521953F4F83
:103050004F4F5F4FE0E8FE2ACA01B901A1012AE003
:1030600030E00E94401CD82ED21840C0953729F479
:103070001F2D1F7E2AE030E01DC01F2D197F9F36B7
:1030800061F0903720F4983509F0ACC00FC090374C
:1030900039F0983709F0A6C004C028E030E00AC033
:1030A000106114FD146020E130E004C014FD1660CE
:1030B00020E132E017FF08C0F50160817181828153
:1030C000938144E050E008C0F50180819181BC010A
:1030D00080E090E042E050E0A40EB51EA1010E9405
:1030E000401CD82ED2188FE7F82EF122F6FE0BC026
:1030F0005EEFF522D91438F4F4FE07C0F2FC05C0E7
:103100008FEEF82202C01D2D01C0192DF4FE0DC056
:10311000FE01ED0DF11D8081803319F499EEF92245
:1031200008C01F5FF2FE05C003C08F2D867809F02E
:103130001F5F0F2DF3FC14C0F0FE0FC01E1510F022
:103140009D2C0BC09D2C9E0C911A1E2D06C080E25A
:1031500090E0B3010E94FA1B1F5F1E15C0F304C06C
:103160001E1510F4E11A01C0EE2404FF0FC080E325
:1031700090E0B3010E94FA1B02FF1DC001FD03C0D5
:1031800088E790E00EC088E590E00BC0802F86783D
:1031900091F001FF02C08BE201C080E2F7FC8DE2FA
:1031A00090E0B3010E94FA1B06C080E390E0B301F7
:1031B0000E94FA1B9A94D914C0F3DA94F101ED0D30
:1031C000F11D808190E0B3010E94FA1BDD20A9F778
:1031D00006C080E290E0B3010E94FA1BEA94EE2060
:1031E000C1F743CEF30166817781CB012B96E2E1F3
:1031F0000C947215FC0120FD08C023FD05C022FFC0
:1032000002C073836283518340830895EF92FF92DB
:103210000F931F9344FF02C033E011C046FF02C06A
:1032200034E00DC0DB01FC01AA0FBB1FEE1FFF1F26
:103230001094D1F76A0F7B1F8E1F9F1F31E0660F1E
:10324000771F881F991F3150D1F77B018C01E20E47
:10325000F11C011D111DA8019701B701CA011F91A1
:103260000F91FF90EF9008950F931F93CF93DF93EB
:103270008C01C8010E94B81BEC0197FD08C00E9498
:103280008F1B892BB1F7CE01B8010E94261CCE01FD
:10329000DF91CF911F910F910895A0E0B0E0E3E599
:1032A000F9E10C945E15EC01C62E5A01122F0E9412
:1032B000B81BAC018B3219F08D3251F41068CA94EE
:1032C00009F46DC0CE010E94B81BAC0197FD67C028
:1032D0006DEFD62ED1228D2D807301F54033F1F4A0
:1032E000CA9409F447C0CE010E94B81BAC0197FDF7
:1032F00041C082E0D82A483711F0483559F480E4BB
:10330000D82ACA94B9F1CE010E94B81BAC01992306
:103310002CF430C0D6FC02C080E1D82AEE24FF2471
:103320008701242F2053283088F0D4FC09C02A308C
:1033300068F0D6FE05C02F7D822F8151863028F09F
:10334000CA01BE010E94261C12C02750C801B70145
:103350004D2D0E9406197B018C0182E0D82ACA9467
:1033600061F0CE010E94B81BAC0197FFDACFD1FC0F
:1033700004C015C0EE24FF248701D7FE08C01095B5
:103380000095F094E094E11CF11C011D111DC50194
:10339000B801A7012D2D0E94FA1881E001C080E03C
:1033A000CDB7DEB7EAE00C947A15A0E2B0E0EBED21
:1033B000F9E10C945A156C01A62E8A017901FE01DF
:1033C000319680E2DF011D928A95E9F770E030E0E6
:1033D00060E040E050E04F01A1E0B0E0F601838101
:1033E000F70183FD259183FF21917F01222309F4B9
:1033F0007EC02E3519F44115510569F1872F90E0F3
:103400008417950744F42D3551F12D3221F43323DF
:1034100029F431E021C0332309F4622F322F832FA6
:10342000869586958695F401E80FF11D832F8770A8
:103430003D0102C0660C771C8A95E2F7208126299F
:103440002083361711F430E007C0361710F43F5FC1
:10345000E6CF3150E4CF71E04F5F5F4FBFCF3323F2
:1034600019F08E8180628E83772359F0FE013196A8
:103470009E012F5D3F4F808180958193E217F30776
:10348000D1F7BB24B3944E010894811C911CC60152
:103490000E94B81BAC0197FD22C086958695869543
:1034A000F401E80FF11D808190E09A0127703070DF
:1034B00002C0959587952A95E2F780FD05C0CA015F
:1034C000B6010E94261C0BC00115110519F0D80188
:1034D0004D938D01AA94BB24AA20C9F602C0BB203B
:1034E00031F40115110529F0F801108202C0EE2413
:1034F000FF24C701A096EEE00C947615A0E0B0E0A2
:10350000E4E8FAE10C945A155C016B013A01FC0104
:10351000178216828824EAC0812F90E00E948F1BB8
:10352000892B21F0C5010E943419E0C0153249F4FD
:10353000F601F3FC6591F3FE61916F01653269F468
:1035400015E2C5010E94B81B97FDDCC0181709F4ED
:10355000CDC0B5010E94261CDAC06A3219F0162FC0
:1035600000E006C0F3FC1591F3FE11916F0101E03C
:1035700099240FC00260692D70E080E090E040E285
:103580000E940619962EF601F3FC1591F3FE119197
:103590006F01212F20532A3068F301FD03C09924C5
:1035A0009A9403C0992009F4B2C0183621F01C3651
:1035B00099F4F6010BC0F601F3FC6591F3FE6191FD
:1035C000683619F06F01162F07C008600460F3FC1D
:1035D0001591F3FE11916F01112309F498C084E550
:1035E00090E0612F70E00E94971B892B09F48FC037
:1035F000802F00FF03C0EE24FF2407C0F301E0800A
:10360000F18022E030E0620E731E1E3651F4F501A7
:103610004681578160E070E0C701202F0E94FA18B0
:1036200065C0133691F481FD02C099249394C501BD
:103630000E94B81B97FD66C0E114F10419F0F70170
:1036400081937F019A9499F74FC01B3559F4C501B6
:10365000692DA70196010E94D5196C01009709F008
:1036600043C03DC0C5010E94341997FD4BC01F36B1
:1036700059F1103728F4143629F1193639F527C0D5
:10368000133719F0153711F51DC0C5010E94B81B7D
:10369000EC0197FD11C00E948F1B892B29F0CE01F0
:1036A000B5010E94261C08C0E114F10419F0F701CD
:1036B000C1937F019A9449F7E114F104A9F0F7014D
:1036C000108212C0006203C0006101C00064C50125
:1036D000692DA701202F0E944D19882329F4F50197
:1036E0008381807379F413C000FF8394F501F38024
:1036F000F601F3FC1591F3FE11916F01112309F00E
:103700000BCF05C0882019F42FEF3FEF02C0282D02
:1037100030E0C901CDB7DEB7EEE00C94761591111B
:103720000DC1803219F089508550D0F70895FC0101
:103730000590061621F00020D9F7C00108953197B1
:10374000CF010895FC010590615070400110D8F739
:10375000809590958E0F9F1F0895FC0161507040D9
:1037600001900110D8F7809590958E0F9F1F0895B6
:10377000CF93DF93EC014B8140FF1AC046FF0AC094
:103780004F7B4B838E819F8101969F838E838A819D
:10379000282F2BC042FF13C0E881F9818081282F98
:1037A000332727FD30952115310529F440624B83DD
:1037B0002FEF3FEF1BC03196F983E88311C0EA85F4
:1037C000FB85CE0109959C0197FF0AC09B812F5F65
:1037D0003F4F11F080E201C080E1892B8B83E8CF5D
:1037E0008E819F8101969F838E8330E0C901DF9196
:1037F000CF9108950F931F93CF93DF938C01EB012B
:103800008B8181FF1BC082FF0DC02E813F818C8187
:103810009D812817390764F4E881F9810193F983C0
:10382000E88306C0E885F985802F0995892B31F456
:103830008E819F8101969F838E8302C00FEF1FEFC1
:10384000C801DF91CF911F910F9108959C01FB0159
:10385000838180FF11C086FD0FC09FEF2F3F390786
:1038600059F0228380648F7D8383868197810197BD
:103870009783868330E002C02FEF3FEFC9010895A0
:10388000FA01AA27283051F1203181F1E8946F9391
:103890006E7F6E5F7F4F8F4F9F4FAF4FB1E03ED037
:1038A000B4E03CD0670F781F891F9A1FA11D680FD5
:1038B000791F8A1F911DA11D6A0F711D811D911D08
:1038C000A11D20D009F468943F912AE0269F11247D
:1038D0003019305D3193DEF6CF010895462F4770E1
:1038E000405D4193B3E00FD0C9F7F6CF462F4F703C
:1038F000405D4A3318F0495D31FD4052419302D09A
:10390000A9F7EACFB4E0A69597958795779567953F
:10391000BA95C9F700976105710508959B01AC013F
:103920000A2E06945795479537952795BA95C9F766
:10393000620F731F841F951FA01D08959927882764
:063940000895F894FFCF8A
:103946000A504C65617365202C456E746572206E55
:1039560065772064617461203A000A456E74657269
:1039660020746865204E616D6520706C65617365B5
:10397600203A000A456E74657220746865204167B6
:103986006520706C65617365203A002564000A54F1
:1039960068652065646974696E6720696E666F7212
:1039A6006D6174696F6E20737563636565646564C4
:1039B600203A2900496E636F7272656374204E6106
:1039C6006D65202C596F7520646F6E2774204D61CC
:1039D6006B65206163636F756E74206265666F72D6
:1039E60065203A29005468652044656C6574696FE2
:1039F6006E20697320446F6E65203A2900496E6314
:103A06006F7272656374204163636F756E74202CE8
:103A1600596F7520646F6E277420726573657665BD
:103A2600206265666F7265203A29000A2041726538
:103A360020796F75204E65772055736572206F72F9
:103A4600204E6F743F200A20594E200A00456E749E
:103A5600657220796F7572204E616D6520506C65B8
:103A66006173653A0A200020546865204E616D65D1
:103A7600206973203A202573200A00456E7465720A
:103A860020796F75722050617373776F726420505E
:103A96006C656173653A0A200020546865205061A0
:103AA6007373776F7264206973203A202025732020
:103AB6000A005369676E20557020697320446F6E43
:103AC600650A0020546865204E616D6520203A2005
:103AD6002573206973204E6F7420466F756E6420BF
:103AE600506C65617365205369676E20757020623E
:103AF60065666F7265205369676E20696E0A2000DD
:103B060020546865204E616D6520203A202573207B
:103B1600697320466F756E6420617420696E6465F2
:103B260078202564200A2000456E7465722074682A
:103B3600652050617373776F726420706C65617372
:103B460065203A0A005369676E20696E20446F6EDD
:103B560065205375636365737366756C6C79202194
:103B6600203A0A005369676E20696E204661696CC7
:103B7600656420506C656173652C205472792061F0
:103B86006761696E2021203A0A00596F75722074A8
:103B96007269657320697320657870697265640A55
:103BA60020706C656173652061737375726520772B
:103BB6006974682070617373776F726420616E64D4
:103BC60020747279206C617465720A000A00446F71
:103BD60020796F752077616E7420446F6F72207341
:103BE600756273797374656D206F72204C696768AE
:103BF600742073756273797374656D3F0A00494664
:103C060020796F752077616E7420446F6F72207310
:103C1600756273797374656D205072657373204491
:103C2600203A0A00494620796F752077616E742024
:103C3600446F6F722073756273797374656D20506B
:103C460072657373204C203A0A00494620796F75D5
:103C56002077616E7420457869742050726573739D
:103C66002045203A0A00446F20796F752077616EEF
:103C76007420746F204F70656E206F7220636C6FB6
:103C86007365204C69676874203F0A0049462079AD
:103C96006F752077616E74204F70656E2050726567
:103CA6007373204F203A0A00494620796F752077B2
:103CB600616E7420436C6F73652050726573732058
:103CC60043203A0A00494620796F752077616E7461
:103CD60020746F204261636B2050726573732042BB
:103CE600203A0A00546869732043686F6963652047
:103CF6006973206E6F7420617661696C61626C65B0
:103D060000446F20796F752077616E7420746F2080
:103D16004F70656E206F7220636C6F736520446F01
:103D26006F72203F0A00494620796F752077616ED1
:103D360074204F70656E20507265737320204F207B
:103D46003A0A00546869732043686F69636520699D
:103D560073206E6F7420617661696C61626C652C8C
:103D660054727920416761696E000000000000000E
:103D76000000000102020303030304040404040414
:103D860004040505050505050505050505050505DF
:103D960005050606060606060606060606060606BF
:103DA60006060606060606060606060606060606AD
:103DB600060607070707070707070707070707078F
:103DC600070707070707070707070707070707077D
:103DD600070707070707070707070707070707076D
:103DE600070707070707070707070707070707075D
:103DF600070708080808080808080808080808083F
:103E0600080808080808080808080808080808082C
:103E1600080808080808080808080808080808081C
:103E2600080808080808080808080808080808080C
:103E360008080808080808080808080808080808FC
:103E460008080808080808080808080808080808EC
:103E560008080808080808080808080808080808DC
:103E660008080808080808080808080808080808CC
:103E760008082000EB0500000100409C4000409C23
:103E8600400405060700010203594E204535363722
:0A3E960038396964307230303000B2
:00000001FF
